{
  "_format": "hh-sol-artifact-1",
  "contractName": "TralaNFTStaking",
  "sourceName": "contracts/TralaStaking.sol",
  "abi": [
    {
      "inputs": [
        {
          "internalType": "address",
          "name": "nftAddress",
          "type": "address"
        },
        {
          "internalType": "address",
          "name": "admin",
          "type": "address"
        }
      ],
      "stateMutability": "nonpayable",
      "type": "constructor"
    },
    {
      "inputs": [],
      "name": "AccessControlBadConfirmation",
      "type": "error"
    },
    {
      "inputs": [
        {
          "internalType": "address",
          "name": "account",
          "type": "address"
        },
        {
          "internalType": "bytes32",
          "name": "neededRole",
          "type": "bytes32"
        }
      ],
      "name": "AccessControlUnauthorizedAccount",
      "type": "error"
    },
    {
      "inputs": [],
      "name": "EnforcedPause",
      "type": "error"
    },
    {
      "inputs": [],
      "name": "ExpectedPause",
      "type": "error"
    },
    {
      "inputs": [],
      "name": "InsufficientStakedAmount",
      "type": "error"
    },
    {
      "inputs": [],
      "name": "InvalidERC1155Interface",
      "type": "error"
    },
    {
      "inputs": [],
      "name": "NoTokensStaked",
      "type": "error"
    },
    {
      "inputs": [],
      "name": "ReentrancyGuardReentrantCall",
      "type": "error"
    },
    {
      "inputs": [],
      "name": "ZeroAddress",
      "type": "error"
    },
    {
      "inputs": [],
      "name": "ZeroAmount",
      "type": "error"
    },
    {
      "anonymous": false,
      "inputs": [
        {
          "indexed": true,
          "internalType": "address",
          "name": "admin",
          "type": "address"
        }
      ],
      "name": "ContractPaused",
      "type": "event"
    },
    {
      "anonymous": false,
      "inputs": [
        {
          "indexed": true,
          "internalType": "address",
          "name": "admin",
          "type": "address"
        }
      ],
      "name": "ContractUnpaused",
      "type": "event"
    },
    {
      "anonymous": false,
      "inputs": [
        {
          "indexed": true,
          "internalType": "address",
          "name": "admin",
          "type": "address"
        },
        {
          "indexed": true,
          "internalType": "address",
          "name": "user",
          "type": "address"
        },
        {
          "indexed": true,
          "internalType": "uint256",
          "name": "tokenId",
          "type": "uint256"
        },
        {
          "indexed": false,
          "internalType": "uint256",
          "name": "amount",
          "type": "uint256"
        }
      ],
      "name": "EmergencyUnstake",
      "type": "event"
    },
    {
      "anonymous": false,
      "inputs": [
        {
          "indexed": true,
          "internalType": "address",
          "name": "admin",
          "type": "address"
        },
        {
          "indexed": true,
          "internalType": "address",
          "name": "oldAddress",
          "type": "address"
        },
        {
          "indexed": true,
          "internalType": "address",
          "name": "newAddress",
          "type": "address"
        }
      ],
      "name": "NFTAddressUpdated",
      "type": "event"
    },
    {
      "anonymous": false,
      "inputs": [
        {
          "indexed": false,
          "internalType": "address",
          "name": "account",
          "type": "address"
        }
      ],
      "name": "Paused",
      "type": "event"
    },
    {
      "anonymous": false,
      "inputs": [
        {
          "indexed": true,
          "internalType": "bytes32",
          "name": "role",
          "type": "bytes32"
        },
        {
          "indexed": true,
          "internalType": "bytes32",
          "name": "previousAdminRole",
          "type": "bytes32"
        },
        {
          "indexed": true,
          "internalType": "bytes32",
          "name": "newAdminRole",
          "type": "bytes32"
        }
      ],
      "name": "RoleAdminChanged",
      "type": "event"
    },
    {
      "anonymous": false,
      "inputs": [
        {
          "indexed": true,
          "internalType": "bytes32",
          "name": "role",
          "type": "bytes32"
        },
        {
          "indexed": true,
          "internalType": "address",
          "name": "account",
          "type": "address"
        },
        {
          "indexed": true,
          "internalType": "address",
          "name": "sender",
          "type": "address"
        }
      ],
      "name": "RoleGranted",
      "type": "event"
    },
    {
      "anonymous": false,
      "inputs": [
        {
          "indexed": true,
          "internalType": "bytes32",
          "name": "role",
          "type": "bytes32"
        },
        {
          "indexed": true,
          "internalType": "address",
          "name": "account",
          "type": "address"
        },
        {
          "indexed": true,
          "internalType": "address",
          "name": "sender",
          "type": "address"
        }
      ],
      "name": "RoleRevoked",
      "type": "event"
    },
    {
      "anonymous": false,
      "inputs": [
        {
          "indexed": true,
          "internalType": "address",
          "name": "user",
          "type": "address"
        },
        {
          "indexed": true,
          "internalType": "uint256",
          "name": "tokenId",
          "type": "uint256"
        },
        {
          "indexed": false,
          "internalType": "uint256",
          "name": "amount",
          "type": "uint256"
        },
        {
          "indexed": false,
          "internalType": "uint256",
          "name": "timestamp",
          "type": "uint256"
        }
      ],
      "name": "TokenStaked",
      "type": "event"
    },
    {
      "anonymous": false,
      "inputs": [
        {
          "indexed": true,
          "internalType": "address",
          "name": "user",
          "type": "address"
        },
        {
          "indexed": true,
          "internalType": "uint256",
          "name": "tokenId",
          "type": "uint256"
        },
        {
          "indexed": false,
          "internalType": "uint256",
          "name": "amount",
          "type": "uint256"
        },
        {
          "indexed": false,
          "internalType": "uint256",
          "name": "timestamp",
          "type": "uint256"
        }
      ],
      "name": "TokenUnstaked",
      "type": "event"
    },
    {
      "anonymous": false,
      "inputs": [
        {
          "indexed": false,
          "internalType": "address",
          "name": "account",
          "type": "address"
        }
      ],
      "name": "Unpaused",
      "type": "event"
    },
    {
      "inputs": [],
      "name": "ADMIN_ROLE",
      "outputs": [
        {
          "internalType": "bytes32",
          "name": "",
          "type": "bytes32"
        }
      ],
      "stateMutability": "view",
      "type": "function"
    },
    {
      "inputs": [],
      "name": "DEFAULT_ADMIN_ROLE",
      "outputs": [
        {
          "internalType": "bytes32",
          "name": "",
          "type": "bytes32"
        }
      ],
      "stateMutability": "view",
      "type": "function"
    },
    {
      "inputs": [
        {
          "internalType": "uint256",
          "name": "tokenId",
          "type": "uint256"
        },
        {
          "internalType": "address",
          "name": "user",
          "type": "address"
        }
      ],
      "name": "emergencyUnstake",
      "outputs": [],
      "stateMutability": "nonpayable",
      "type": "function"
    },
    {
      "inputs": [
        {
          "internalType": "bytes32",
          "name": "role",
          "type": "bytes32"
        }
      ],
      "name": "getRoleAdmin",
      "outputs": [
        {
          "internalType": "bytes32",
          "name": "",
          "type": "bytes32"
        }
      ],
      "stateMutability": "view",
      "type": "function"
    },
    {
      "inputs": [
        {
          "internalType": "address",
          "name": "user",
          "type": "address"
        },
        {
          "internalType": "uint256",
          "name": "tokenId",
          "type": "uint256"
        }
      ],
      "name": "getStakedAmount",
      "outputs": [
        {
          "internalType": "uint256",
          "name": "",
          "type": "uint256"
        }
      ],
      "stateMutability": "view",
      "type": "function"
    },
    {
      "inputs": [
        {
          "internalType": "bytes32",
          "name": "role",
          "type": "bytes32"
        },
        {
          "internalType": "address",
          "name": "account",
          "type": "address"
        }
      ],
      "name": "grantRole",
      "outputs": [],
      "stateMutability": "nonpayable",
      "type": "function"
    },
    {
      "inputs": [
        {
          "internalType": "bytes32",
          "name": "role",
          "type": "bytes32"
        },
        {
          "internalType": "address",
          "name": "account",
          "type": "address"
        }
      ],
      "name": "hasRole",
      "outputs": [
        {
          "internalType": "bool",
          "name": "",
          "type": "bool"
        }
      ],
      "stateMutability": "view",
      "type": "function"
    },
    {
      "inputs": [],
      "name": "nftContract",
      "outputs": [
        {
          "internalType": "contract IERC1155",
          "name": "",
          "type": "address"
        }
      ],
      "stateMutability": "view",
      "type": "function"
    },
    {
      "inputs": [
        {
          "internalType": "address",
          "name": "",
          "type": "address"
        },
        {
          "internalType": "address",
          "name": "",
          "type": "address"
        },
        {
          "internalType": "uint256[]",
          "name": "",
          "type": "uint256[]"
        },
        {
          "internalType": "uint256[]",
          "name": "",
          "type": "uint256[]"
        },
        {
          "internalType": "bytes",
          "name": "",
          "type": "bytes"
        }
      ],
      "name": "onERC1155BatchReceived",
      "outputs": [
        {
          "internalType": "bytes4",
          "name": "",
          "type": "bytes4"
        }
      ],
      "stateMutability": "nonpayable",
      "type": "function"
    },
    {
      "inputs": [
        {
          "internalType": "address",
          "name": "",
          "type": "address"
        },
        {
          "internalType": "address",
          "name": "",
          "type": "address"
        },
        {
          "internalType": "uint256",
          "name": "",
          "type": "uint256"
        },
        {
          "internalType": "uint256",
          "name": "",
          "type": "uint256"
        },
        {
          "internalType": "bytes",
          "name": "",
          "type": "bytes"
        }
      ],
      "name": "onERC1155Received",
      "outputs": [
        {
          "internalType": "bytes4",
          "name": "",
          "type": "bytes4"
        }
      ],
      "stateMutability": "nonpayable",
      "type": "function"
    },
    {
      "inputs": [],
      "name": "pause",
      "outputs": [],
      "stateMutability": "nonpayable",
      "type": "function"
    },
    {
      "inputs": [],
      "name": "paused",
      "outputs": [
        {
          "internalType": "bool",
          "name": "",
          "type": "bool"
        }
      ],
      "stateMutability": "view",
      "type": "function"
    },
    {
      "inputs": [
        {
          "internalType": "bytes32",
          "name": "role",
          "type": "bytes32"
        },
        {
          "internalType": "address",
          "name": "callerConfirmation",
          "type": "address"
        }
      ],
      "name": "renounceRole",
      "outputs": [],
      "stateMutability": "nonpayable",
      "type": "function"
    },
    {
      "inputs": [
        {
          "internalType": "bytes32",
          "name": "role",
          "type": "bytes32"
        },
        {
          "internalType": "address",
          "name": "account",
          "type": "address"
        }
      ],
      "name": "revokeRole",
      "outputs": [],
      "stateMutability": "nonpayable",
      "type": "function"
    },
    {
      "inputs": [
        {
          "internalType": "uint256",
          "name": "tokenId",
          "type": "uint256"
        },
        {
          "internalType": "uint256",
          "name": "amount",
          "type": "uint256"
        }
      ],
      "name": "stake",
      "outputs": [],
      "stateMutability": "nonpayable",
      "type": "function"
    },
    {
      "inputs": [
        {
          "internalType": "address",
          "name": "",
          "type": "address"
        },
        {
          "internalType": "uint256",
          "name": "",
          "type": "uint256"
        }
      ],
      "name": "stakedAmounts",
      "outputs": [
        {
          "internalType": "uint256",
          "name": "",
          "type": "uint256"
        }
      ],
      "stateMutability": "view",
      "type": "function"
    },
    {
      "inputs": [
        {
          "internalType": "bytes4",
          "name": "interfaceId",
          "type": "bytes4"
        }
      ],
      "name": "supportsInterface",
      "outputs": [
        {
          "internalType": "bool",
          "name": "",
          "type": "bool"
        }
      ],
      "stateMutability": "view",
      "type": "function"
    },
    {
      "inputs": [],
      "name": "unpause",
      "outputs": [],
      "stateMutability": "nonpayable",
      "type": "function"
    },
    {
      "inputs": [
        {
          "internalType": "uint256",
          "name": "tokenId",
          "type": "uint256"
        },
        {
          "internalType": "uint256",
          "name": "amount",
          "type": "uint256"
        }
      ],
      "name": "unstake",
      "outputs": [],
      "stateMutability": "nonpayable",
      "type": "function"
    },
    {
      "inputs": [
        {
          "internalType": "address",
          "name": "newNftAddress",
          "type": "address"
        }
      ],
      "name": "updateNftAddress",
      "outputs": [],
      "stateMutability": "nonpayable",
      "type": "function"
    }
  ],
  "bytecode": "0x608060405234801561001057600080fd5b506040516123c03803806123c083398181016040528101906100329190610450565b6000600160006101000a81548160ff0219169083151502179055506001600281905550600073ffffffffffffffffffffffffffffffffffffffff168273ffffffffffffffffffffffffffffffffffffffff16036100bb576040517fd92e233d00000000000000000000000000000000000000000000000000000000815260040160405180910390fd5b600073ffffffffffffffffffffffffffffffffffffffff168173ffffffffffffffffffffffffffffffffffffffff1603610121576040517fd92e233d00000000000000000000000000000000000000000000000000000000815260040160405180910390fd5b8173ffffffffffffffffffffffffffffffffffffffff166301ffc9a77fd9b67a26000000000000000000000000000000000000000000000000000000006040518263ffffffff1660e01b815260040161017a91906104cb565b602060405180830381865afa158015610197573d6000803e3d6000fd5b505050506040513d601f19601f820116820180604052508101906101bb919061051e565b6101f1576040517fd50e5c2a00000000000000000000000000000000000000000000000000000000815260040160405180910390fd5b81600360006101000a81548173ffffffffffffffffffffffffffffffffffffffff021916908373ffffffffffffffffffffffffffffffffffffffff1602179055506102456000801b8261027e60201b60201c565b506102767fa49807205ce4d355092ef5a8a18f56e8913cf4a201fbe287825b095693c217758261027e60201b60201c565b50505061054b565b6000610290838361037b60201b60201c565b61037057600160008085815260200190815260200160002060000160008473ffffffffffffffffffffffffffffffffffffffff1673ffffffffffffffffffffffffffffffffffffffff16815260200190815260200160002060006101000a81548160ff02191690831515021790555061030d6103e560201b60201c565b73ffffffffffffffffffffffffffffffffffffffff168273ffffffffffffffffffffffffffffffffffffffff16847f2f8788117e7eff1d82e926ec794901d17c78024a50270940304540a733656f0d60405160405180910390a460019050610375565b600090505b92915050565b600080600084815260200190815260200160002060000160008373ffffffffffffffffffffffffffffffffffffffff1673ffffffffffffffffffffffffffffffffffffffff16815260200190815260200160002060009054906101000a900460ff16905092915050565b600033905090565b600080fd5b600073ffffffffffffffffffffffffffffffffffffffff82169050919050565b600061041d826103f2565b9050919050565b61042d81610412565b811461043857600080fd5b50565b60008151905061044a81610424565b92915050565b60008060408385031215610467576104666103ed565b5b60006104758582860161043b565b92505060206104868582860161043b565b9150509250929050565b60007fffffffff0000000000000000000000000000000000000000000000000000000082169050919050565b6104c581610490565b82525050565b60006020820190506104e060008301846104bc565b92915050565b60008115159050919050565b6104fb816104e6565b811461050657600080fd5b50565b600081519050610518816104f2565b92915050565b600060208284031215610534576105336103ed565b5b600061054284828501610509565b91505092915050565b611e668061055a6000396000f3fe608060405234801561001057600080fd5b506004361061012c5760003560e01c80638456cb59116100ad578063bc197c8111610071578063bc197c811461031b578063d547741f1461034b578063d56d229d14610367578063e5eb7ae814610385578063f23a6e61146103a15761012c565b80638456cb591461028b57806391d14854146102955780639e2c8a5b146102c5578063a217fddf146102e1578063a28f5d75146102ff5761012c565b80633f4ba83a116100f45780633f4ba83a146101f95780634a84c9ee146102035780635c975abb1461023357806375b238fc146102515780637b0472f01461026f5761012c565b806301ffc9a7146101315780631b6eb1bc14610161578063248a9ca3146101915780632f2ff15d146101c157806336568abe146101dd575b600080fd5b61014b60048036038101906101469190611542565b6103d1565b604051610158919061158a565b60405180910390f35b61017b60048036038101906101769190611639565b6103e3565b6040516101889190611688565b60405180910390f35b6101ab60048036038101906101a691906116d9565b610408565b6040516101b89190611715565b60405180910390f35b6101db60048036038101906101d69190611730565b610427565b005b6101f760048036038101906101f29190611730565b610449565b005b6102016104c4565b005b61021d60048036038101906102189190611639565b61053c565b60405161022a9190611688565b60405180910390f35b61023b610597565b604051610248919061158a565b60405180910390f35b6102596105ae565b6040516102669190611715565b60405180910390f35b61028960048036038101906102849190611770565b6105d2565b005b610293610773565b005b6102af60048036038101906102aa9190611730565b6107eb565b6040516102bc919061158a565b60405180910390f35b6102df60048036038101906102da9190611770565b610855565b005b6102e9610a80565b6040516102f69190611715565b60405180910390f35b610319600480360381019061031491906117b0565b610a87565b005b610335600480360381019061033091906119fe565b610ce4565b6040516103429190611adc565b60405180910390f35b61036560048036038101906103609190611730565b610cf9565b005b61036f610d1b565b60405161037c9190611b56565b60405180910390f35b61039f600480360381019061039a9190611b71565b610d41565b005b6103bb60048036038101906103b69190611b9e565b610f7f565b6040516103c89190611adc565b60405180910390f35b60006103dc82610f94565b9050919050565b6004602052816000526040600020602052806000526040600020600091509150505481565b6000806000838152602001908152602001600020600101549050919050565b61043082610408565b6104398161100e565b6104438383611022565b50505050565b610451611113565b73ffffffffffffffffffffffffffffffffffffffff168173ffffffffffffffffffffffffffffffffffffffff16146104b5576040517f6697b23200000000000000000000000000000000000000000000000000000000815260040160405180910390fd5b6104bf828261111b565b505050565b7fa49807205ce4d355092ef5a8a18f56e8913cf4a201fbe287825b095693c217756104ee8161100e565b6104f661120d565b3373ffffffffffffffffffffffffffffffffffffffff167f5b65b0c1363b3003db9bcc5e1fd8805a6d6bf5bf6dc9d3431ee4494cd7d1176660405160405180910390a250565b6000600460008473ffffffffffffffffffffffffffffffffffffffff1673ffffffffffffffffffffffffffffffffffffffff168152602001908152602001600020600083815260200190815260200160002054905092915050565b6000600160009054906101000a900460ff16905090565b7fa49807205ce4d355092ef5a8a18f56e8913cf4a201fbe287825b095693c2177581565b6105da611270565b6105e26112b1565b6000810361061c576040517f1f2a200500000000000000000000000000000000000000000000000000000000815260040160405180910390fd5b600360009054906101000a900473ffffffffffffffffffffffffffffffffffffffff1673ffffffffffffffffffffffffffffffffffffffff1663f242432a333085856040518563ffffffff1660e01b815260040161067d9493929190611c7b565b600060405180830381600087803b15801561069757600080fd5b505af11580156106ab573d6000803e3d6000fd5b5050505080600460003373ffffffffffffffffffffffffffffffffffffffff1673ffffffffffffffffffffffffffffffffffffffff1681526020019081526020016000206000848152602001908152602001600020600082825461070f9190611d02565b92505081905550813373ffffffffffffffffffffffffffffffffffffffff167f2a313e4098ce76ffcc9934f8807e091b11069a1974e3da9f6f43700247e85e0f834260405161075f929190611d36565b60405180910390a361076f6112f5565b5050565b7fa49807205ce4d355092ef5a8a18f56e8913cf4a201fbe287825b095693c2177561079d8161100e565b6107a56112ff565b3373ffffffffffffffffffffffffffffffffffffffff167f81990fd9a5c552b8e3677917d8a03c07678f0d2cb68f88b634aca2022e9bd19f60405160405180910390a250565b600080600084815260200190815260200160002060000160008373ffffffffffffffffffffffffffffffffffffffff1673ffffffffffffffffffffffffffffffffffffffff16815260200190815260200160002060009054906101000a900460ff16905092915050565b61085d611270565b6108656112b1565b6000810361089f576040517f1f2a200500000000000000000000000000000000000000000000000000000000815260040160405180910390fd5b80600460003373ffffffffffffffffffffffffffffffffffffffff1673ffffffffffffffffffffffffffffffffffffffff1681526020019081526020016000206000848152602001908152602001600020541015610929576040517fd06ff88e00000000000000000000000000000000000000000000000000000000815260040160405180910390fd5b80600460003373ffffffffffffffffffffffffffffffffffffffff1673ffffffffffffffffffffffffffffffffffffffff168152602001908152602001600020600084815260200190815260200160002060008282546109899190611d5f565b92505081905550600360009054906101000a900473ffffffffffffffffffffffffffffffffffffffff1673ffffffffffffffffffffffffffffffffffffffff1663f242432a303385856040518563ffffffff1660e01b81526004016109f19493929190611c7b565b600060405180830381600087803b158015610a0b57600080fd5b505af1158015610a1f573d6000803e3d6000fd5b50505050813373ffffffffffffffffffffffffffffffffffffffff167f3eb6d453aa29e92949e29c67089d3b4cd70bae81955590f81641b3b3894170028342604051610a6c929190611d36565b60405180910390a3610a7c6112f5565b5050565b6000801b81565b7fa49807205ce4d355092ef5a8a18f56e8913cf4a201fbe287825b095693c21775610ab18161100e565b6000600460008473ffffffffffffffffffffffffffffffffffffffff1673ffffffffffffffffffffffffffffffffffffffff168152602001908152602001600020600085815260200190815260200160002054905060008103610b40576040517f528b04cb00000000000000000000000000000000000000000000000000000000815260040160405180910390fd5b600460008473ffffffffffffffffffffffffffffffffffffffff1673ffffffffffffffffffffffffffffffffffffffff168152602001908152602001600020600085815260200190815260200160002060009055600360009054906101000a900473ffffffffffffffffffffffffffffffffffffffff1673ffffffffffffffffffffffffffffffffffffffff1663f242432a308587856040518563ffffffff1660e01b8152600401610bf59493929190611c7b565b600060405180830381600087803b158015610c0f57600080fd5b505af1158015610c23573d6000803e3d6000fd5b50505050838373ffffffffffffffffffffffffffffffffffffffff167f3eb6d453aa29e92949e29c67089d3b4cd70bae81955590f81641b3b3894170028342604051610c70929190611d36565b60405180910390a3838373ffffffffffffffffffffffffffffffffffffffff163373ffffffffffffffffffffffffffffffffffffffff167f5e8b7651c31b7097b6196d845fd44bc14a778baafd6ec3c0334a8474917c046e84604051610cd69190611688565b60405180910390a450505050565b600063bc197c8160e01b905095945050505050565b610d0282610408565b610d0b8161100e565b610d15838361111b565b50505050565b600360009054906101000a900473ffffffffffffffffffffffffffffffffffffffff1681565b7fa49807205ce4d355092ef5a8a18f56e8913cf4a201fbe287825b095693c21775610d6b8161100e565b600073ffffffffffffffffffffffffffffffffffffffff168273ffffffffffffffffffffffffffffffffffffffff1603610dd1576040517fd92e233d00000000000000000000000000000000000000000000000000000000815260040160405180910390fd5b8173ffffffffffffffffffffffffffffffffffffffff166301ffc9a77fd9b67a26000000000000000000000000000000000000000000000000000000006040518263ffffffff1660e01b8152600401610e2a9190611adc565b602060405180830381865afa158015610e47573d6000803e3d6000fd5b505050506040513d601f19601f82011682018060405250810190610e6b9190611dbf565b610ea1576040517fd50e5c2a00000000000000000000000000000000000000000000000000000000815260040160405180910390fd5b6000600360009054906101000a900473ffffffffffffffffffffffffffffffffffffffff16905082600360006101000a81548173ffffffffffffffffffffffffffffffffffffffff021916908373ffffffffffffffffffffffffffffffffffffffff1602179055508273ffffffffffffffffffffffffffffffffffffffff168173ffffffffffffffffffffffffffffffffffffffff163373ffffffffffffffffffffffffffffffffffffffff167fa23e2ba0aca1ea7fe857e1be57ca5455a207e49022dd3a61ce9d89036e5cb8d060405160405180910390a4505050565b600063f23a6e6160e01b905095945050505050565b60007f7965db0b000000000000000000000000000000000000000000000000000000007bffffffffffffffffffffffffffffffffffffffffffffffffffffffff1916827bffffffffffffffffffffffffffffffffffffffffffffffffffffffff19161480611007575061100682611361565b5b9050919050565b61101f8161101a611113565b6113db565b50565b600061102e83836107eb565b61110857600160008085815260200190815260200160002060000160008473ffffffffffffffffffffffffffffffffffffffff1673ffffffffffffffffffffffffffffffffffffffff16815260200190815260200160002060006101000a81548160ff0219169083151502179055506110a5611113565b73ffffffffffffffffffffffffffffffffffffffff168273ffffffffffffffffffffffffffffffffffffffff16847f2f8788117e7eff1d82e926ec794901d17c78024a50270940304540a733656f0d60405160405180910390a46001905061110d565b600090505b92915050565b600033905090565b600061112783836107eb565b1561120257600080600085815260200190815260200160002060000160008473ffffffffffffffffffffffffffffffffffffffff1673ffffffffffffffffffffffffffffffffffffffff16815260200190815260200160002060006101000a81548160ff02191690831515021790555061119f611113565b73ffffffffffffffffffffffffffffffffffffffff168273ffffffffffffffffffffffffffffffffffffffff16847ff6391f5c32d9c69d2a47ea670b442974b53935d1edc7fd64eb21e047a839171b60405160405180910390a460019050611207565b600090505b92915050565b61121561142c565b6000600160006101000a81548160ff0219169083151502179055507f5db9ee0a495bf2e6ff9c91a7834c1ba4fdd244a5e8aa4e537bd38aeae4b073aa611259611113565b6040516112669190611dec565b60405180910390a1565b611278610597565b156112af576040517fd93c066500000000000000000000000000000000000000000000000000000000815260040160405180910390fd5b565b60028054036112ec576040517f3ee5aeb500000000000000000000000000000000000000000000000000000000815260040160405180910390fd5b60028081905550565b6001600281905550565b611307611270565b60018060006101000a81548160ff0219169083151502179055507f62e78cea01bee320cd4e420270b5ea74000d11b0c9f74754ebdbfc544b05a25861134a611113565b6040516113579190611dec565b60405180910390a1565b60007f4e2312e0000000000000000000000000000000000000000000000000000000007bffffffffffffffffffffffffffffffffffffffffffffffffffffffff1916827bffffffffffffffffffffffffffffffffffffffffffffffffffffffff191614806113d457506113d38261146c565b5b9050919050565b6113e582826107eb565b6114285780826040517fe2517d3f00000000000000000000000000000000000000000000000000000000815260040161141f929190611e07565b60405180910390fd5b5050565b611434610597565b61146a576040517f8dfc202b00000000000000000000000000000000000000000000000000000000815260040160405180910390fd5b565b60007f01ffc9a7000000000000000000000000000000000000000000000000000000007bffffffffffffffffffffffffffffffffffffffffffffffffffffffff1916827bffffffffffffffffffffffffffffffffffffffffffffffffffffffff1916149050919050565b6000604051905090565b600080fd5b600080fd5b60007fffffffff0000000000000000000000000000000000000000000000000000000082169050919050565b61151f816114ea565b811461152a57600080fd5b50565b60008135905061153c81611516565b92915050565b600060208284031215611558576115576114e0565b5b60006115668482850161152d565b91505092915050565b60008115159050919050565b6115848161156f565b82525050565b600060208201905061159f600083018461157b565b92915050565b600073ffffffffffffffffffffffffffffffffffffffff82169050919050565b60006115d0826115a5565b9050919050565b6115e0816115c5565b81146115eb57600080fd5b50565b6000813590506115fd816115d7565b92915050565b6000819050919050565b61161681611603565b811461162157600080fd5b50565b6000813590506116338161160d565b92915050565b600080604083850312156116505761164f6114e0565b5b600061165e858286016115ee565b925050602061166f85828601611624565b9150509250929050565b61168281611603565b82525050565b600060208201905061169d6000830184611679565b92915050565b6000819050919050565b6116b6816116a3565b81146116c157600080fd5b50565b6000813590506116d3816116ad565b92915050565b6000602082840312156116ef576116ee6114e0565b5b60006116fd848285016116c4565b91505092915050565b61170f816116a3565b82525050565b600060208201905061172a6000830184611706565b92915050565b60008060408385031215611747576117466114e0565b5b6000611755858286016116c4565b9250506020611766858286016115ee565b9150509250929050565b60008060408385031215611787576117866114e0565b5b600061179585828601611624565b92505060206117a685828601611624565b9150509250929050565b600080604083850312156117c7576117c66114e0565b5b60006117d585828601611624565b92505060206117e6858286016115ee565b9150509250929050565b600080fd5b6000601f19601f8301169050919050565b7f4e487b7100000000000000000000000000000000000000000000000000000000600052604160045260246000fd5b61183e826117f5565b810181811067ffffffffffffffff8211171561185d5761185c611806565b5b80604052505050565b60006118706114d6565b905061187c8282611835565b919050565b600067ffffffffffffffff82111561189c5761189b611806565b5b602082029050602081019050919050565b600080fd5b60006118c56118c084611881565b611866565b905080838252602082019050602084028301858111156118e8576118e76118ad565b5b835b8181101561191157806118fd8882611624565b8452602084019350506020810190506118ea565b5050509392505050565b600082601f8301126119305761192f6117f0565b5b81356119408482602086016118b2565b91505092915050565b600080fd5b600067ffffffffffffffff82111561196957611968611806565b5b611972826117f5565b9050602081019050919050565b82818337600083830152505050565b60006119a161199c8461194e565b611866565b9050828152602081018484840111156119bd576119bc611949565b5b6119c884828561197f565b509392505050565b600082601f8301126119e5576119e46117f0565b5b81356119f584826020860161198e565b91505092915050565b600080600080600060a08688031215611a1a57611a196114e0565b5b6000611a28888289016115ee565b9550506020611a39888289016115ee565b945050604086013567ffffffffffffffff811115611a5a57611a596114e5565b5b611a668882890161191b565b935050606086013567ffffffffffffffff811115611a8757611a866114e5565b5b611a938882890161191b565b925050608086013567ffffffffffffffff811115611ab457611ab36114e5565b5b611ac0888289016119d0565b9150509295509295909350565b611ad6816114ea565b82525050565b6000602082019050611af16000830184611acd565b92915050565b6000819050919050565b6000611b1c611b17611b12846115a5565b611af7565b6115a5565b9050919050565b6000611b2e82611b01565b9050919050565b6000611b4082611b23565b9050919050565b611b5081611b35565b82525050565b6000602082019050611b6b6000830184611b47565b92915050565b600060208284031215611b8757611b866114e0565b5b6000611b95848285016115ee565b91505092915050565b600080600080600060a08688031215611bba57611bb96114e0565b5b6000611bc8888289016115ee565b9550506020611bd9888289016115ee565b9450506040611bea88828901611624565b9350506060611bfb88828901611624565b925050608086013567ffffffffffffffff811115611c1c57611c1b6114e5565b5b611c28888289016119d0565b9150509295509295909350565b611c3e816115c5565b82525050565b600082825260208201905092915050565b50565b6000611c65600083611c44565b9150611c7082611c55565b600082019050919050565b600060a082019050611c906000830187611c35565b611c9d6020830186611c35565b611caa6040830185611679565b611cb76060830184611679565b8181036080830152611cc881611c58565b905095945050505050565b7f4e487b7100000000000000000000000000000000000000000000000000000000600052601160045260246000fd5b6000611d0d82611603565b9150611d1883611603565b9250828201905080821115611d3057611d2f611cd3565b5b92915050565b6000604082019050611d4b6000830185611679565b611d586020830184611679565b9392505050565b6000611d6a82611603565b9150611d7583611603565b9250828203905081811115611d8d57611d8c611cd3565b5b92915050565b611d9c8161156f565b8114611da757600080fd5b50565b600081519050611db981611d93565b92915050565b600060208284031215611dd557611dd46114e0565b5b6000611de384828501611daa565b91505092915050565b6000602082019050611e016000830184611c35565b92915050565b6000604082019050611e1c6000830185611c35565b611e296020830184611706565b939250505056fea26469706673582212200ee4aff9fb4df0534e4430aa9abd7d12f48fb224a692052a938e96c9defea5a664736f6c634300081b0033",
  "linkReferences": {},
  "deployedLinkReferences": {}
}