{
  "_format": "hh-sol-artifact-1",
  "contractName": "TralaNFT",
  "sourceName": "contracts/Trala.sol",
  "abi": [
    {
      "inputs": [
        {
          "internalType": "string",
          "name": "_name",
          "type": "string"
        },
        {
          "internalType": "string",
          "name": "_symbol",
          "type": "string"
        },
        {
          "internalType": "string",
          "name": "_uri",
          "type": "string"
        },
        {
          "internalType": "address",
          "name": "_initialTreasury",
          "type": "address"
        },
        {
          "internalType": "address",
          "name": "_initialSigner",
          "type": "address"
        }
      ],
      "stateMutability": "nonpayable",
      "type": "constructor"
    },
    {
      "inputs": [],
      "name": "AccessControlBadConfirmation",
      "type": "error"
    },
    {
      "inputs": [
        {
          "internalType": "address",
          "name": "account",
          "type": "address"
        },
        {
          "internalType": "bytes32",
          "name": "neededRole",
          "type": "bytes32"
        }
      ],
      "name": "AccessControlUnauthorizedAccount",
      "type": "error"
    },
    {
      "inputs": [],
      "name": "ECDSAInvalidSignature",
      "type": "error"
    },
    {
      "inputs": [
        {
          "internalType": "uint256",
          "name": "length",
          "type": "uint256"
        }
      ],
      "name": "ECDSAInvalidSignatureLength",
      "type": "error"
    },
    {
      "inputs": [
        {
          "internalType": "bytes32",
          "name": "s",
          "type": "bytes32"
        }
      ],
      "name": "ECDSAInvalidSignatureS",
      "type": "error"
    },
    {
      "inputs": [
        {
          "internalType": "address",
          "name": "sender",
          "type": "address"
        },
        {
          "internalType": "uint256",
          "name": "balance",
          "type": "uint256"
        },
        {
          "internalType": "uint256",
          "name": "needed",
          "type": "uint256"
        },
        {
          "internalType": "uint256",
          "name": "tokenId",
          "type": "uint256"
        }
      ],
      "name": "ERC1155InsufficientBalance",
      "type": "error"
    },
    {
      "inputs": [
        {
          "internalType": "address",
          "name": "approver",
          "type": "address"
        }
      ],
      "name": "ERC1155InvalidApprover",
      "type": "error"
    },
    {
      "inputs": [
        {
          "internalType": "uint256",
          "name": "idsLength",
          "type": "uint256"
        },
        {
          "internalType": "uint256",
          "name": "valuesLength",
          "type": "uint256"
        }
      ],
      "name": "ERC1155InvalidArrayLength",
      "type": "error"
    },
    {
      "inputs": [
        {
          "internalType": "address",
          "name": "operator",
          "type": "address"
        }
      ],
      "name": "ERC1155InvalidOperator",
      "type": "error"
    },
    {
      "inputs": [
        {
          "internalType": "address",
          "name": "receiver",
          "type": "address"
        }
      ],
      "name": "ERC1155InvalidReceiver",
      "type": "error"
    },
    {
      "inputs": [
        {
          "internalType": "address",
          "name": "sender",
          "type": "address"
        }
      ],
      "name": "ERC1155InvalidSender",
      "type": "error"
    },
    {
      "inputs": [
        {
          "internalType": "address",
          "name": "operator",
          "type": "address"
        },
        {
          "internalType": "address",
          "name": "owner",
          "type": "address"
        }
      ],
      "name": "ERC1155MissingApprovalForAll",
      "type": "error"
    },
    {
      "inputs": [],
      "name": "EnforcedPause",
      "type": "error"
    },
    {
      "inputs": [
        {
          "internalType": "uint256",
          "name": "tokenId",
          "type": "uint256"
        },
        {
          "internalType": "uint256",
          "name": "maxSupply",
          "type": "uint256"
        },
        {
          "internalType": "uint256",
          "name": "currentSupply",
          "type": "uint256"
        },
        {
          "internalType": "uint256",
          "name": "requestedAmount",
          "type": "uint256"
        }
      ],
      "name": "ExceedsMaxSupply",
      "type": "error"
    },
    {
      "inputs": [],
      "name": "ExpectedPause",
      "type": "error"
    },
    {
      "inputs": [
        {
          "internalType": "uint256",
          "name": "required",
          "type": "uint256"
        },
        {
          "internalType": "uint256",
          "name": "sent",
          "type": "uint256"
        }
      ],
      "name": "InsufficientPayment",
      "type": "error"
    },
    {
      "inputs": [],
      "name": "InvalidSignature",
      "type": "error"
    },
    {
      "inputs": [],
      "name": "NoFundsToWithdraw",
      "type": "error"
    },
    {
      "inputs": [],
      "name": "ReentrancyGuardReentrantCall",
      "type": "error"
    },
    {
      "inputs": [],
      "name": "SignatureRequired",
      "type": "error"
    },
    {
      "inputs": [
        {
          "internalType": "uint256",
          "name": "tokenId",
          "type": "uint256"
        }
      ],
      "name": "TokenIsSoulbound",
      "type": "error"
    },
    {
      "inputs": [
        {
          "internalType": "uint256",
          "name": "tokenId",
          "type": "uint256"
        }
      ],
      "name": "TokenNotActive",
      "type": "error"
    },
    {
      "inputs": [],
      "name": "WithdrawalFailed",
      "type": "error"
    },
    {
      "anonymous": false,
      "inputs": [
        {
          "indexed": true,
          "internalType": "address",
          "name": "account",
          "type": "address"
        },
        {
          "indexed": true,
          "internalType": "address",
          "name": "operator",
          "type": "address"
        },
        {
          "indexed": false,
          "internalType": "bool",
          "name": "approved",
          "type": "bool"
        }
      ],
      "name": "ApprovalForAll",
      "type": "event"
    },
    {
      "anonymous": false,
      "inputs": [
        {
          "indexed": false,
          "internalType": "address",
          "name": "account",
          "type": "address"
        }
      ],
      "name": "Paused",
      "type": "event"
    },
    {
      "anonymous": false,
      "inputs": [
        {
          "indexed": true,
          "internalType": "bytes32",
          "name": "role",
          "type": "bytes32"
        },
        {
          "indexed": true,
          "internalType": "bytes32",
          "name": "previousAdminRole",
          "type": "bytes32"
        },
        {
          "indexed": true,
          "internalType": "bytes32",
          "name": "newAdminRole",
          "type": "bytes32"
        }
      ],
      "name": "RoleAdminChanged",
      "type": "event"
    },
    {
      "anonymous": false,
      "inputs": [
        {
          "indexed": true,
          "internalType": "bytes32",
          "name": "role",
          "type": "bytes32"
        },
        {
          "indexed": true,
          "internalType": "address",
          "name": "account",
          "type": "address"
        },
        {
          "indexed": true,
          "internalType": "address",
          "name": "sender",
          "type": "address"
        }
      ],
      "name": "RoleGranted",
      "type": "event"
    },
    {
      "anonymous": false,
      "inputs": [
        {
          "indexed": true,
          "internalType": "bytes32",
          "name": "role",
          "type": "bytes32"
        },
        {
          "indexed": true,
          "internalType": "address",
          "name": "account",
          "type": "address"
        },
        {
          "indexed": true,
          "internalType": "address",
          "name": "sender",
          "type": "address"
        }
      ],
      "name": "RoleRevoked",
      "type": "event"
    },
    {
      "anonymous": false,
      "inputs": [
        {
          "indexed": true,
          "internalType": "uint256",
          "name": "tokenId",
          "type": "uint256"
        },
        {
          "indexed": false,
          "internalType": "string",
          "name": "name",
          "type": "string"
        },
        {
          "indexed": false,
          "internalType": "uint256",
          "name": "maxSupply",
          "type": "uint256"
        },
        {
          "indexed": false,
          "internalType": "uint256",
          "name": "price",
          "type": "uint256"
        },
        {
          "indexed": false,
          "internalType": "bool",
          "name": "allowlistRequired",
          "type": "bool"
        },
        {
          "indexed": false,
          "internalType": "bool",
          "name": "active",
          "type": "bool"
        },
        {
          "indexed": false,
          "internalType": "bool",
          "name": "soulbound",
          "type": "bool"
        }
      ],
      "name": "TokenConfigured",
      "type": "event"
    },
    {
      "anonymous": false,
      "inputs": [
        {
          "indexed": true,
          "internalType": "address",
          "name": "to",
          "type": "address"
        },
        {
          "indexed": true,
          "internalType": "uint256",
          "name": "tokenId",
          "type": "uint256"
        },
        {
          "indexed": false,
          "internalType": "uint256",
          "name": "amount",
          "type": "uint256"
        }
      ],
      "name": "TokenMinted",
      "type": "event"
    },
    {
      "anonymous": false,
      "inputs": [
        {
          "indexed": true,
          "internalType": "address",
          "name": "operator",
          "type": "address"
        },
        {
          "indexed": true,
          "internalType": "address",
          "name": "from",
          "type": "address"
        },
        {
          "indexed": true,
          "internalType": "address",
          "name": "to",
          "type": "address"
        },
        {
          "indexed": false,
          "internalType": "uint256[]",
          "name": "ids",
          "type": "uint256[]"
        },
        {
          "indexed": false,
          "internalType": "uint256[]",
          "name": "values",
          "type": "uint256[]"
        }
      ],
      "name": "TransferBatch",
      "type": "event"
    },
    {
      "anonymous": false,
      "inputs": [
        {
          "indexed": true,
          "internalType": "address",
          "name": "operator",
          "type": "address"
        },
        {
          "indexed": true,
          "internalType": "address",
          "name": "from",
          "type": "address"
        },
        {
          "indexed": true,
          "internalType": "address",
          "name": "to",
          "type": "address"
        },
        {
          "indexed": false,
          "internalType": "uint256",
          "name": "id",
          "type": "uint256"
        },
        {
          "indexed": false,
          "internalType": "uint256",
          "name": "value",
          "type": "uint256"
        }
      ],
      "name": "TransferSingle",
      "type": "event"
    },
    {
      "anonymous": false,
      "inputs": [
        {
          "indexed": false,
          "internalType": "string",
          "name": "value",
          "type": "string"
        },
        {
          "indexed": true,
          "internalType": "uint256",
          "name": "id",
          "type": "uint256"
        }
      ],
      "name": "URI",
      "type": "event"
    },
    {
      "anonymous": false,
      "inputs": [
        {
          "indexed": false,
          "internalType": "address",
          "name": "account",
          "type": "address"
        }
      ],
      "name": "Unpaused",
      "type": "event"
    },
    {
      "anonymous": false,
      "inputs": [
        {
          "indexed": true,
          "internalType": "address",
          "name": "to",
          "type": "address"
        },
        {
          "indexed": false,
          "internalType": "uint256",
          "name": "amount",
          "type": "uint256"
        }
      ],
      "name": "WithdrawFunds",
      "type": "event"
    },
    {
      "inputs": [],
      "name": "ADMIN_ROLE",
      "outputs": [
        {
          "internalType": "bytes32",
          "name": "",
          "type": "bytes32"
        }
      ],
      "stateMutability": "view",
      "type": "function"
    },
    {
      "inputs": [],
      "name": "DEFAULT_ADMIN_ROLE",
      "outputs": [
        {
          "internalType": "bytes32",
          "name": "",
          "type": "bytes32"
        }
      ],
      "stateMutability": "view",
      "type": "function"
    },
    {
      "inputs": [],
      "name": "SIGNER_ROLE",
      "outputs": [
        {
          "internalType": "bytes32",
          "name": "",
          "type": "bytes32"
        }
      ],
      "stateMutability": "view",
      "type": "function"
    },
    {
      "inputs": [],
      "name": "TREASURY_ROLE",
      "outputs": [
        {
          "internalType": "bytes32",
          "name": "",
          "type": "bytes32"
        }
      ],
      "stateMutability": "view",
      "type": "function"
    },
    {
      "inputs": [
        {
          "internalType": "address",
          "name": "account",
          "type": "address"
        },
        {
          "internalType": "uint256",
          "name": "id",
          "type": "uint256"
        }
      ],
      "name": "balanceOf",
      "outputs": [
        {
          "internalType": "uint256",
          "name": "",
          "type": "uint256"
        }
      ],
      "stateMutability": "view",
      "type": "function"
    },
    {
      "inputs": [
        {
          "internalType": "address[]",
          "name": "accounts",
          "type": "address[]"
        },
        {
          "internalType": "uint256[]",
          "name": "ids",
          "type": "uint256[]"
        }
      ],
      "name": "balanceOfBatch",
      "outputs": [
        {
          "internalType": "uint256[]",
          "name": "",
          "type": "uint256[]"
        }
      ],
      "stateMutability": "view",
      "type": "function"
    },
    {
      "inputs": [
        {
          "internalType": "address",
          "name": "account",
          "type": "address"
        },
        {
          "internalType": "uint256",
          "name": "id",
          "type": "uint256"
        },
        {
          "internalType": "uint256",
          "name": "value",
          "type": "uint256"
        }
      ],
      "name": "burn",
      "outputs": [],
      "stateMutability": "nonpayable",
      "type": "function"
    },
    {
      "inputs": [
        {
          "internalType": "address",
          "name": "account",
          "type": "address"
        },
        {
          "internalType": "uint256[]",
          "name": "ids",
          "type": "uint256[]"
        },
        {
          "internalType": "uint256[]",
          "name": "values",
          "type": "uint256[]"
        }
      ],
      "name": "burnBatch",
      "outputs": [],
      "stateMutability": "nonpayable",
      "type": "function"
    },
    {
      "inputs": [
        {
          "internalType": "uint256",
          "name": "tokenId",
          "type": "uint256"
        },
        {
          "internalType": "string",
          "name": "_name",
          "type": "string"
        },
        {
          "internalType": "uint256",
          "name": "_maxSupply",
          "type": "uint256"
        },
        {
          "internalType": "uint256",
          "name": "_price",
          "type": "uint256"
        },
        {
          "internalType": "bool",
          "name": "_allowlistRequired",
          "type": "bool"
        },
        {
          "internalType": "bool",
          "name": "_active",
          "type": "bool"
        },
        {
          "internalType": "bool",
          "name": "_soulbound",
          "type": "bool"
        }
      ],
      "name": "configureToken",
      "outputs": [],
      "stateMutability": "nonpayable",
      "type": "function"
    },
    {
      "inputs": [
        {
          "internalType": "uint256",
          "name": "id",
          "type": "uint256"
        }
      ],
      "name": "exists",
      "outputs": [
        {
          "internalType": "bool",
          "name": "",
          "type": "bool"
        }
      ],
      "stateMutability": "view",
      "type": "function"
    },
    {
      "inputs": [],
      "name": "getAllTokenIds",
      "outputs": [
        {
          "internalType": "uint256[]",
          "name": "",
          "type": "uint256[]"
        }
      ],
      "stateMutability": "view",
      "type": "function"
    },
    {
      "inputs": [
        {
          "internalType": "bytes32",
          "name": "role",
          "type": "bytes32"
        }
      ],
      "name": "getRoleAdmin",
      "outputs": [
        {
          "internalType": "bytes32",
          "name": "",
          "type": "bytes32"
        }
      ],
      "stateMutability": "view",
      "type": "function"
    },
    {
      "inputs": [
        {
          "internalType": "bytes32",
          "name": "role",
          "type": "bytes32"
        },
        {
          "internalType": "address",
          "name": "account",
          "type": "address"
        }
      ],
      "name": "grantRole",
      "outputs": [],
      "stateMutability": "nonpayable",
      "type": "function"
    },
    {
      "inputs": [
        {
          "internalType": "bytes32",
          "name": "role",
          "type": "bytes32"
        },
        {
          "internalType": "address",
          "name": "account",
          "type": "address"
        }
      ],
      "name": "hasRole",
      "outputs": [
        {
          "internalType": "bool",
          "name": "",
          "type": "bool"
        }
      ],
      "stateMutability": "view",
      "type": "function"
    },
    {
      "inputs": [
        {
          "internalType": "address",
          "name": "account",
          "type": "address"
        },
        {
          "internalType": "address",
          "name": "operator",
          "type": "address"
        }
      ],
      "name": "isApprovedForAll",
      "outputs": [
        {
          "internalType": "bool",
          "name": "",
          "type": "bool"
        }
      ],
      "stateMutability": "view",
      "type": "function"
    },
    {
      "inputs": [
        {
          "internalType": "address",
          "name": "to",
          "type": "address"
        },
        {
          "internalType": "uint256",
          "name": "tokenId",
          "type": "uint256"
        },
        {
          "internalType": "uint256",
          "name": "amount",
          "type": "uint256"
        },
        {
          "internalType": "bytes",
          "name": "signature",
          "type": "bytes"
        }
      ],
      "name": "mint",
      "outputs": [],
      "stateMutability": "payable",
      "type": "function"
    },
    {
      "inputs": [],
      "name": "name",
      "outputs": [
        {
          "internalType": "string",
          "name": "",
          "type": "string"
        }
      ],
      "stateMutability": "view",
      "type": "function"
    },
    {
      "inputs": [
        {
          "internalType": "address",
          "name": "owner",
          "type": "address"
        }
      ],
      "name": "nonces",
      "outputs": [
        {
          "internalType": "uint256",
          "name": "",
          "type": "uint256"
        }
      ],
      "stateMutability": "view",
      "type": "function"
    },
    {
      "inputs": [],
      "name": "pause",
      "outputs": [],
      "stateMutability": "nonpayable",
      "type": "function"
    },
    {
      "inputs": [],
      "name": "paused",
      "outputs": [
        {
          "internalType": "bool",
          "name": "",
          "type": "bool"
        }
      ],
      "stateMutability": "view",
      "type": "function"
    },
    {
      "inputs": [
        {
          "internalType": "bytes32",
          "name": "role",
          "type": "bytes32"
        },
        {
          "internalType": "address",
          "name": "callerConfirmation",
          "type": "address"
        }
      ],
      "name": "renounceRole",
      "outputs": [],
      "stateMutability": "nonpayable",
      "type": "function"
    },
    {
      "inputs": [
        {
          "internalType": "bytes32",
          "name": "role",
          "type": "bytes32"
        },
        {
          "internalType": "address",
          "name": "account",
          "type": "address"
        }
      ],
      "name": "revokeRole",
      "outputs": [],
      "stateMutability": "nonpayable",
      "type": "function"
    },
    {
      "inputs": [
        {
          "internalType": "address",
          "name": "from",
          "type": "address"
        },
        {
          "internalType": "address",
          "name": "to",
          "type": "address"
        },
        {
          "internalType": "uint256[]",
          "name": "ids",
          "type": "uint256[]"
        },
        {
          "internalType": "uint256[]",
          "name": "values",
          "type": "uint256[]"
        },
        {
          "internalType": "bytes",
          "name": "data",
          "type": "bytes"
        }
      ],
      "name": "safeBatchTransferFrom",
      "outputs": [],
      "stateMutability": "nonpayable",
      "type": "function"
    },
    {
      "inputs": [
        {
          "internalType": "address",
          "name": "from",
          "type": "address"
        },
        {
          "internalType": "address",
          "name": "to",
          "type": "address"
        },
        {
          "internalType": "uint256",
          "name": "id",
          "type": "uint256"
        },
        {
          "internalType": "uint256",
          "name": "value",
          "type": "uint256"
        },
        {
          "internalType": "bytes",
          "name": "data",
          "type": "bytes"
        }
      ],
      "name": "safeTransferFrom",
      "outputs": [],
      "stateMutability": "nonpayable",
      "type": "function"
    },
    {
      "inputs": [
        {
          "internalType": "uint256",
          "name": "tokenId",
          "type": "uint256"
        },
        {
          "internalType": "bool",
          "name": "required",
          "type": "bool"
        }
      ],
      "name": "setAllowlistRequired",
      "outputs": [],
      "stateMutability": "nonpayable",
      "type": "function"
    },
    {
      "inputs": [
        {
          "internalType": "address",
          "name": "operator",
          "type": "address"
        },
        {
          "internalType": "bool",
          "name": "approved",
          "type": "bool"
        }
      ],
      "name": "setApprovalForAll",
      "outputs": [],
      "stateMutability": "nonpayable",
      "type": "function"
    },
    {
      "inputs": [
        {
          "internalType": "uint256",
          "name": "tokenId",
          "type": "uint256"
        },
        {
          "internalType": "bool",
          "name": "active",
          "type": "bool"
        }
      ],
      "name": "setTokenActive",
      "outputs": [],
      "stateMutability": "nonpayable",
      "type": "function"
    },
    {
      "inputs": [
        {
          "internalType": "uint256",
          "name": "tokenId",
          "type": "uint256"
        },
        {
          "internalType": "uint256",
          "name": "price",
          "type": "uint256"
        }
      ],
      "name": "setTokenPrice",
      "outputs": [],
      "stateMutability": "nonpayable",
      "type": "function"
    },
    {
      "inputs": [
        {
          "internalType": "string",
          "name": "newuri",
          "type": "string"
        }
      ],
      "name": "setURI",
      "outputs": [],
      "stateMutability": "nonpayable",
      "type": "function"
    },
    {
      "inputs": [
        {
          "internalType": "bytes4",
          "name": "interfaceId",
          "type": "bytes4"
        }
      ],
      "name": "supportsInterface",
      "outputs": [
        {
          "internalType": "bool",
          "name": "",
          "type": "bool"
        }
      ],
      "stateMutability": "view",
      "type": "function"
    },
    {
      "inputs": [],
      "name": "symbol",
      "outputs": [
        {
          "internalType": "string",
          "name": "",
          "type": "string"
        }
      ],
      "stateMutability": "view",
      "type": "function"
    },
    {
      "inputs": [
        {
          "internalType": "uint256",
          "name": "",
          "type": "uint256"
        }
      ],
      "name": "tokenConfigs",
      "outputs": [
        {
          "internalType": "string",
          "name": "name",
          "type": "string"
        },
        {
          "internalType": "uint256",
          "name": "maxSupply",
          "type": "uint256"
        },
        {
          "internalType": "uint256",
          "name": "price",
          "type": "uint256"
        },
        {
          "internalType": "bool",
          "name": "allowlistRequired",
          "type": "bool"
        },
        {
          "internalType": "bool",
          "name": "active",
          "type": "bool"
        },
        {
          "internalType": "bool",
          "name": "soulbound",
          "type": "bool"
        }
      ],
      "stateMutability": "view",
      "type": "function"
    },
    {
      "inputs": [],
      "name": "totalSupply",
      "outputs": [
        {
          "internalType": "uint256",
          "name": "",
          "type": "uint256"
        }
      ],
      "stateMutability": "view",
      "type": "function"
    },
    {
      "inputs": [
        {
          "internalType": "uint256",
          "name": "id",
          "type": "uint256"
        }
      ],
      "name": "totalSupply",
      "outputs": [
        {
          "internalType": "uint256",
          "name": "",
          "type": "uint256"
        }
      ],
      "stateMutability": "view",
      "type": "function"
    },
    {
      "inputs": [],
      "name": "unpause",
      "outputs": [],
      "stateMutability": "nonpayable",
      "type": "function"
    },
    {
      "inputs": [
        {
          "internalType": "uint256",
          "name": "",
          "type": "uint256"
        }
      ],
      "name": "uri",
      "outputs": [
        {
          "internalType": "string",
          "name": "",
          "type": "string"
        }
      ],
      "stateMutability": "view",
      "type": "function"
    },
    {
      "inputs": [],
      "name": "withdraw",
      "outputs": [],
      "stateMutability": "nonpayable",
      "type": "function"
    }
  ],
  "bytecode": "0x608060405234801561001057600080fd5b506040516154613803806154618339818101604052810190610032919061047a565b826100428161012360201b60201c565b506000600660006101000a81548160ff02191690831515021790555060016007819055508460089081610075919061076a565b508360099081610085919061076a565b506100b67fa49807205ce4d355092ef5a8a18f56e8913cf4a201fbe287825b095693c217753361013660201b60201c565b506100e77fe1dcbdb91df27212a29bc27177c840cf2f819ecf2187432e1fac86c2dd5dfca98361013660201b60201c565b506101187fe2f4eaae4a9751e85a3e4a7b9587827a877f29914755229b07a7b2da98285f708261013660201b60201c565b50505050505061083c565b8060029081610132919061076a565b5050565b6000610148838361023460201b60201c565b6102295760016005600085815260200190815260200160002060000160008473ffffffffffffffffffffffffffffffffffffffff1673ffffffffffffffffffffffffffffffffffffffff16815260200190815260200160002060006101000a81548160ff0219169083151502179055506101c661029f60201b60201c565b73ffffffffffffffffffffffffffffffffffffffff168273ffffffffffffffffffffffffffffffffffffffff16847f2f8788117e7eff1d82e926ec794901d17c78024a50270940304540a733656f0d60405160405180910390a46001905061022e565b600090505b92915050565b60006005600084815260200190815260200160002060000160008373ffffffffffffffffffffffffffffffffffffffff1673ffffffffffffffffffffffffffffffffffffffff16815260200190815260200160002060009054906101000a900460ff16905092915050565b600033905090565b6000604051905090565b600080fd5b600080fd5b600080fd5b600080fd5b6000601f19601f8301169050919050565b7f4e487b7100000000000000000000000000000000000000000000000000000000600052604160045260246000fd5b61030e826102c5565b810181811067ffffffffffffffff8211171561032d5761032c6102d6565b5b80604052505050565b60006103406102a7565b905061034c8282610305565b919050565b600067ffffffffffffffff82111561036c5761036b6102d6565b5b610375826102c5565b9050602081019050919050565b60005b838110156103a0578082015181840152602081019050610385565b60008484015250505050565b60006103bf6103ba84610351565b610336565b9050828152602081018484840111156103db576103da6102c0565b5b6103e6848285610382565b509392505050565b600082601f830112610403576104026102bb565b5b81516104138482602086016103ac565b91505092915050565b600073ffffffffffffffffffffffffffffffffffffffff82169050919050565b60006104478261041c565b9050919050565b6104578161043c565b811461046257600080fd5b50565b6000815190506104748161044e565b92915050565b600080600080600060a08688031215610496576104956102b1565b5b600086015167ffffffffffffffff8111156104b4576104b36102b6565b5b6104c0888289016103ee565b955050602086015167ffffffffffffffff8111156104e1576104e06102b6565b5b6104ed888289016103ee565b945050604086015167ffffffffffffffff81111561050e5761050d6102b6565b5b61051a888289016103ee565b935050606061052b88828901610465565b925050608061053c88828901610465565b9150509295509295909350565b600081519050919050565b7f4e487b7100000000000000000000000000000000000000000000000000000000600052602260045260246000fd5b6000600282049050600182168061059b57607f821691505b6020821081036105ae576105ad610554565b5b50919050565b60008190508160005260206000209050919050565b60006020601f8301049050919050565b600082821b905092915050565b6000600883026106167fffffffffffffffffffffffffffffffffffffffffffffffffffffffffffffffff826105d9565b61062086836105d9565b95508019841693508086168417925050509392505050565b6000819050919050565b6000819050919050565b600061066761066261065d84610638565b610642565b610638565b9050919050565b6000819050919050565b6106818361064c565b61069561068d8261066e565b8484546105e6565b825550505050565b600090565b6106aa61069d565b6106b5818484610678565b505050565b5b818110156106d9576106ce6000826106a2565b6001810190506106bb565b5050565b601f82111561071e576106ef816105b4565b6106f8846105c9565b81016020851015610707578190505b61071b610713856105c9565b8301826106ba565b50505b505050565b600082821c905092915050565b600061074160001984600802610723565b1980831691505092915050565b600061075a8383610730565b9150826002028217905092915050565b61077382610549565b67ffffffffffffffff81111561078c5761078b6102d6565b5b6107968254610583565b6107a18282856106dd565b600060209050601f8311600181146107d457600084156107c2578287015190505b6107cc858261074e565b865550610834565b601f1984166107e2866105b4565b60005b8281101561080a578489015182556001820191506020850194506020810190506107e5565b868310156108275784890151610823601f891682610730565b8355505b6001600288020188555050505b505050505050565b614c168061084b6000396000f3fe6080604052600436106102195760003560e01c806375b238fc11610123578063bd85b039116100ab578063e985e9c51161006f578063e985e9c5146107da578063eb685c4714610817578063f242432a14610840578063f5298aca14610869578063ffc54ea41461089257610219565b8063bd85b039146106dc578063bdbed72214610719578063c01bd0e914610744578063d11a57ec14610786578063d547741f146107b157610219565b806391d14854116100f257806391d14854146105f557806395d89b4114610632578063a1ebf35d1461065d578063a217fddf14610688578063a22cb465146106b357610219565b806375b238fc1461054d5780637ecebe00146105785780637ed6797c146105b55780638456cb59146105de57610219565b806336568abe116101a65780634e1273f4116101755780634e1273f4146104635780634f558e79146104a05780635c975abb146104dd5780636b20c45414610508578063731133e91461053157610219565b806336568abe146103e35780633c9c20841461040c5780633ccfd60b146104355780633f4ba83a1461044c57610219565b80630e89341c116101ed5780630e89341c146102ec57806318160ddd14610329578063248a9ca3146103545780632eb2c2d6146103915780632f2ff15d146103ba57610219565b8062fdd58e1461021e57806301ffc9a71461025b57806302fe53051461029857806306fdde03146102c1575b600080fd5b34801561022a57600080fd5b50610245600480360381019061024091906135bc565b6108bb565b604051610252919061360b565b60405180910390f35b34801561026757600080fd5b50610282600480360381019061027d919061367e565b610915565b60405161028f91906136c6565b60405180910390f35b3480156102a457600080fd5b506102bf60048036038101906102ba9190613827565b610927565b005b3480156102cd57600080fd5b506102d661095e565b6040516102e391906138ef565b60405180910390f35b3480156102f857600080fd5b50610313600480360381019061030e9190613911565b6109ec565b60405161032091906138ef565b60405180910390f35b34801561033557600080fd5b5061033e610a80565b60405161034b919061360b565b60405180910390f35b34801561036057600080fd5b5061037b60048036038101906103769190613974565b610a8a565b60405161038891906139b0565b60405180910390f35b34801561039d57600080fd5b506103b860048036038101906103b39190613b34565b610aaa565b005b3480156103c657600080fd5b506103e160048036038101906103dc9190613c03565b610b52565b005b3480156103ef57600080fd5b5061040a60048036038101906104059190613c03565b610b74565b005b34801561041857600080fd5b50610433600480360381019061042e9190613c6f565b610bef565b005b34801561044157600080fd5b5061044a610d8b565b005b34801561045857600080fd5b50610461610eea565b005b34801561046f57600080fd5b5061048a60048036038101906104859190613df0565b610f1f565b6040516104979190613f26565b60405180910390f35b3480156104ac57600080fd5b506104c760048036038101906104c29190613911565b611028565b6040516104d491906136c6565b60405180910390f35b3480156104e957600080fd5b506104f261103c565b6040516104ff91906136c6565b60405180910390f35b34801561051457600080fd5b5061052f600480360381019061052a9190613f48565b611053565b005b61054b6004803603810190610546919061402e565b6110ff565b005b34801561055957600080fd5b506105626115e2565b60405161056f91906139b0565b60405180910390f35b34801561058457600080fd5b5061059f600480360381019061059a91906140b6565b611606565b6040516105ac919061360b565b60405180910390f35b3480156105c157600080fd5b506105dc60048036038101906105d791906140e3565b61164f565b005b3480156105ea57600080fd5b506105f36116ac565b005b34801561060157600080fd5b5061061c60048036038101906106179190613c03565b6116e1565b60405161062991906136c6565b60405180910390f35b34801561063e57600080fd5b5061064761174c565b60405161065491906138ef565b60405180910390f35b34801561066957600080fd5b506106726117da565b60405161067f91906139b0565b60405180910390f35b34801561069457600080fd5b5061069d6117fe565b6040516106aa91906139b0565b60405180910390f35b3480156106bf57600080fd5b506106da60048036038101906106d59190614123565b611805565b005b3480156106e857600080fd5b5061070360048036038101906106fe9190613911565b61181b565b604051610710919061360b565b60405180910390f35b34801561072557600080fd5b5061072e611838565b60405161073b9190613f26565b60405180910390f35b34801561075057600080fd5b5061076b60048036038101906107669190613911565b611890565b60405161077d96959493929190614163565b60405180910390f35b34801561079257600080fd5b5061079b61197b565b6040516107a891906139b0565b60405180910390f35b3480156107bd57600080fd5b506107d860048036038101906107d39190613c03565b61199f565b005b3480156107e657600080fd5b5061080160048036038101906107fc91906141cb565b6119c1565b60405161080e91906136c6565b60405180910390f35b34801561082357600080fd5b5061083e6004803603810190610839919061420b565b611a55565b005b34801561084c57600080fd5b506108676004803603810190610862919061424b565b611a9f565b005b34801561087557600080fd5b50610890600480360381019061088b91906142e2565b611b47565b005b34801561089e57600080fd5b506108b960048036038101906108b491906140e3565b611bf3565b005b600080600083815260200190815260200160002060008473ffffffffffffffffffffffffffffffffffffffff1673ffffffffffffffffffffffffffffffffffffffff16815260200190815260200160002054905092915050565b600061092082611c50565b9050919050565b7fa49807205ce4d355092ef5a8a18f56e8913cf4a201fbe287825b095693c2177561095181611cca565b61095a82611cde565b5050565b6008805461096b90614364565b80601f016020809104026020016040519081016040528092919081815260200182805461099790614364565b80156109e45780601f106109b9576101008083540402835291602001916109e4565b820191906000526020600020905b8154815290600101906020018083116109c757829003601f168201915b505050505081565b6060600280546109fb90614364565b80601f0160208091040260200160405190810160405280929190818152602001828054610a2790614364565b8015610a745780601f10610a4957610100808354040283529160200191610a74565b820191906000526020600020905b815481529060010190602001808311610a5757829003601f168201915b50505050509050919050565b6000600454905090565b600060056000838152602001908152602001600020600101549050919050565b6000610ab4611cf1565b90508073ffffffffffffffffffffffffffffffffffffffff168673ffffffffffffffffffffffffffffffffffffffff1614158015610af95750610af786826119c1565b155b15610b3d5780866040517fe237d922000000000000000000000000000000000000000000000000000000008152600401610b349291906143a4565b60405180910390fd5b610b4a8686868686611cf9565b505050505050565b610b5b82610a8a565b610b6481611cca565b610b6e8383611df1565b50505050565b610b7c611cf1565b73ffffffffffffffffffffffffffffffffffffffff168173ffffffffffffffffffffffffffffffffffffffff1614610be0576040517f6697b23200000000000000000000000000000000000000000000000000000000815260040160405180910390fd5b610bea8282611ee3565b505050565b7fa49807205ce4d355092ef5a8a18f56e8913cf4a201fbe287825b095693c21775610c1981611cca565b6000600a60008a81526020019081526020016000206000018054610c3c90614364565b905003610c6d57600b8890806001815401808255809150506001900390600052602060002001600090919091909150555b6040518060c0016040528088815260200187815260200186815260200185151581526020018415158152602001831515815250600a60008a81526020019081526020016000206000820151816000019081610cc89190614579565b50602082015181600101556040820151816002015560608201518160030160006101000a81548160ff02191690831515021790555060808201518160030160016101000a81548160ff02191690831515021790555060a08201518160030160026101000a81548160ff021916908315150217905550905050877ec205a6f1b6faa2dd08b5ab78d5327b5149a6ca345161c9ec276f4684b1e070888888888888604051610d7996959493929190614163565b60405180910390a25050505050505050565b7fe1dcbdb91df27212a29bc27177c840cf2f819ecf2187432e1fac86c2dd5dfca9610db581611cca565b600047905060008103610df4576040517f67e3990d00000000000000000000000000000000000000000000000000000000815260040160405180910390fd5b60003373ffffffffffffffffffffffffffffffffffffffff1682604051610e1a9061467c565b60006040518083038185875af1925050503d8060008114610e57576040519150601f19603f3d011682016040523d82523d6000602084013e610e5c565b606091505b5050905080610e97576040517f27fcd9d100000000000000000000000000000000000000000000000000000000815260040160405180910390fd5b3373ffffffffffffffffffffffffffffffffffffffff167f21901fa892c430ea8bd38b9390225ac8e67eac75ee10ffba16feefc539a288f983604051610edd919061360b565b60405180910390a2505050565b7fa49807205ce4d355092ef5a8a18f56e8913cf4a201fbe287825b095693c21775610f1481611cca565b610f1c611fd6565b50565b60608151835114610f6b57815183516040517f5b059991000000000000000000000000000000000000000000000000000000008152600401610f62929190614691565b60405180910390fd5b6000835167ffffffffffffffff811115610f8857610f876136fc565b5b604051908082528060200260200182016040528015610fb65781602001602082028036833780820191505090505b50905060005b845181101561101d57610ff3610fdb828761203990919063ffffffff16565b610fee838761204d90919063ffffffff16565b6108bb565b828281518110611006576110056146ba565b5b602002602001018181525050806001019050610fbc565b508091505092915050565b6000806110348361181b565b119050919050565b6000600660009054906101000a900460ff16905090565b61105b611cf1565b73ffffffffffffffffffffffffffffffffffffffff168373ffffffffffffffffffffffffffffffffffffffff16141580156110a457506110a28361109d611cf1565b6119c1565b155b156110ef576110b1611cf1565b836040517fe237d9220000000000000000000000000000000000000000000000000000000081526004016110e69291906143a4565b60405180910390fd5b6110fa838383612061565b505050565b6111076120f5565b61110f61213b565b6000600a60008681526020019081526020016000206040518060c001604052908160008201805461113f90614364565b80601f016020809104026020016040519081016040528092919081815260200182805461116b90614364565b80156111b85780601f1061118d576101008083540402835291602001916111b8565b820191906000526020600020905b81548152906001019060200180831161119b57829003601f168201915b5050505050815260200160018201548152602001600282015481526020016003820160009054906101000a900460ff161515151581526020016003820160019054906101000a900460ff161515151581526020016003820160029054906101000a900460ff1615151515815250509050806080015161126e57846040517ff3f61339000000000000000000000000000000000000000000000000000000008152600401611265919061360b565b60405180910390fd5b83816040015161127e9190614718565b3410156112d3578381604001516112959190614718565b346040517fb99e2ab70000000000000000000000000000000000000000000000000000000081526004016112ca929190614691565b60405180910390fd5b60008160200151111561134d5760006112eb8661181b565b9050816020015185826112fe919061475a565b111561134b5785826020015182876040517f70e5fab8000000000000000000000000000000000000000000000000000000008152600401611342949392919061478e565b60405180910390fd5b505b8060600151156115685760008383905003611394576040517f229bfb1f00000000000000000000000000000000000000000000000000000000815260040160405180910390fd5b60007f39bef1777deb3dfb14f64b9f81ced092c501fee72f90e93d03bb95ee89df9837905060003388888885600d60003373ffffffffffffffffffffffffffffffffffffffff1673ffffffffffffffffffffffffffffffffffffffff1681526020019081526020016000205446306040516020016114199897969594939291906147d3565b60405160208183030381529060405280519060200120905060008160405160200161144491906148c9565b60405160208183030381529060405280519060200120905060006114ac8288888080601f016020809104026020016040519081016040528093929190818152602001838380828437600081840152601f19601f8201169050808301925050505050505061217c565b90506114d87fe2f4eaae4a9751e85a3e4a7b9587827a877f29914755229b07a7b2da98285f70826116e1565b61150e576040517f8baa579f00000000000000000000000000000000000000000000000000000000815260040160405180910390fd5b600d60003373ffffffffffffffffffffffffffffffffffffffff1673ffffffffffffffffffffffffffffffffffffffff168152602001908152602001600020600081548092919061155e906148ef565b9190505550505050505b611583868686604051806020016040528060008152506121a8565b848673ffffffffffffffffffffffffffffffffffffffff167f96234cb3d6c373a1aaa06497a540bc166d4b0359243a088eaf95e21d7253d0be866040516115ca919061360b565b60405180910390a3506115db612241565b5050505050565b7fa49807205ce4d355092ef5a8a18f56e8913cf4a201fbe287825b095693c2177581565b6000600d60008373ffffffffffffffffffffffffffffffffffffffff1673ffffffffffffffffffffffffffffffffffffffff168152602001908152602001600020549050919050565b7fa49807205ce4d355092ef5a8a18f56e8913cf4a201fbe287825b095693c2177561167981611cca565b81600a600085815260200190815260200160002060030160006101000a81548160ff021916908315150217905550505050565b7fa49807205ce4d355092ef5a8a18f56e8913cf4a201fbe287825b095693c217756116d681611cca565b6116de61224b565b50565b60006005600084815260200190815260200160002060000160008373ffffffffffffffffffffffffffffffffffffffff1673ffffffffffffffffffffffffffffffffffffffff16815260200190815260200160002060009054906101000a900460ff16905092915050565b6009805461175990614364565b80601f016020809104026020016040519081016040528092919081815260200182805461178590614364565b80156117d25780601f106117a7576101008083540402835291602001916117d2565b820191906000526020600020905b8154815290600101906020018083116117b557829003601f168201915b505050505081565b7fe2f4eaae4a9751e85a3e4a7b9587827a877f29914755229b07a7b2da98285f7081565b6000801b81565b611817611810611cf1565b83836122ae565b5050565b600060036000838152602001908152602001600020549050919050565b6060600b80548060200260200160405190810160405280929190818152602001828054801561188657602002820191906000526020600020905b815481526020019060010190808311611872575b5050505050905090565b600a6020528060005260406000206000915090508060000180546118b390614364565b80601f01602080910402602001604051908101604052809291908181526020018280546118df90614364565b801561192c5780601f106119015761010080835404028352916020019161192c565b820191906000526020600020905b81548152906001019060200180831161190f57829003601f168201915b5050505050908060010154908060020154908060030160009054906101000a900460ff16908060030160019054906101000a900460ff16908060030160029054906101000a900460ff16905086565b7fe1dcbdb91df27212a29bc27177c840cf2f819ecf2187432e1fac86c2dd5dfca981565b6119a882610a8a565b6119b181611cca565b6119bb8383611ee3565b50505050565b6000600160008473ffffffffffffffffffffffffffffffffffffffff1673ffffffffffffffffffffffffffffffffffffffff16815260200190815260200160002060008373ffffffffffffffffffffffffffffffffffffffff1673ffffffffffffffffffffffffffffffffffffffff16815260200190815260200160002060009054906101000a900460ff16905092915050565b7fa49807205ce4d355092ef5a8a18f56e8913cf4a201fbe287825b095693c21775611a7f81611cca565b81600a600085815260200190815260200160002060020181905550505050565b6000611aa9611cf1565b90508073ffffffffffffffffffffffffffffffffffffffff168673ffffffffffffffffffffffffffffffffffffffff1614158015611aee5750611aec86826119c1565b155b15611b325780866040517fe237d922000000000000000000000000000000000000000000000000000000008152600401611b299291906143a4565b60405180910390fd5b611b3f868686868661241e565b505050505050565b611b4f611cf1565b73ffffffffffffffffffffffffffffffffffffffff168373ffffffffffffffffffffffffffffffffffffffff1614158015611b985750611b9683611b91611cf1565b6119c1565b155b15611be357611ba5611cf1565b836040517fe237d922000000000000000000000000000000000000000000000000000000008152600401611bda9291906143a4565b60405180910390fd5b611bee838383612529565b505050565b7fa49807205ce4d355092ef5a8a18f56e8913cf4a201fbe287825b095693c21775611c1d81611cca565b81600a600085815260200190815260200160002060030160016101000a81548160ff021916908315150217905550505050565b60007f7965db0b000000000000000000000000000000000000000000000000000000007bffffffffffffffffffffffffffffffffffffffffffffffffffffffff1916827bffffffffffffffffffffffffffffffffffffffffffffffffffffffff19161480611cc35750611cc2826125d0565b5b9050919050565b611cdb81611cd6611cf1565b6126b2565b50565b8060029081611ced9190614579565b5050565b600033905090565b600073ffffffffffffffffffffffffffffffffffffffff168473ffffffffffffffffffffffffffffffffffffffff1603611d6b5760006040517f57f447ce000000000000000000000000000000000000000000000000000000008152600401611d629190614937565b60405180910390fd5b600073ffffffffffffffffffffffffffffffffffffffff168573ffffffffffffffffffffffffffffffffffffffff1603611ddd5760006040517f01a83514000000000000000000000000000000000000000000000000000000008152600401611dd49190614937565b60405180910390fd5b611dea8585858585612703565b5050505050565b6000611dfd83836116e1565b611ed85760016005600085815260200190815260200160002060000160008473ffffffffffffffffffffffffffffffffffffffff1673ffffffffffffffffffffffffffffffffffffffff16815260200190815260200160002060006101000a81548160ff021916908315150217905550611e75611cf1565b73ffffffffffffffffffffffffffffffffffffffff168273ffffffffffffffffffffffffffffffffffffffff16847f2f8788117e7eff1d82e926ec794901d17c78024a50270940304540a733656f0d60405160405180910390a460019050611edd565b600090505b92915050565b6000611eef83836116e1565b15611fcb5760006005600085815260200190815260200160002060000160008473ffffffffffffffffffffffffffffffffffffffff1673ffffffffffffffffffffffffffffffffffffffff16815260200190815260200160002060006101000a81548160ff021916908315150217905550611f68611cf1565b73ffffffffffffffffffffffffffffffffffffffff168273ffffffffffffffffffffffffffffffffffffffff16847ff6391f5c32d9c69d2a47ea670b442974b53935d1edc7fd64eb21e047a839171b60405160405180910390a460019050611fd0565b600090505b92915050565b611fde6127b5565b6000600660006101000a81548160ff0219169083151502179055507f5db9ee0a495bf2e6ff9c91a7834c1ba4fdd244a5e8aa4e537bd38aeae4b073aa612022611cf1565b60405161202f9190614937565b60405180910390a1565b600060208202602084010151905092915050565b600060208202602084010151905092915050565b600073ffffffffffffffffffffffffffffffffffffffff168373ffffffffffffffffffffffffffffffffffffffff16036120d35760006040517f01a835140000000000000000000000000000000000000000000000000000000081526004016120ca9190614937565b60405180910390fd5b6120f0836000848460405180602001604052806000815250612703565b505050565b600260075403612131576040517f3ee5aeb500000000000000000000000000000000000000000000000000000000815260040160405180910390fd5b6002600781905550565b61214361103c565b1561217a576040517fd93c066500000000000000000000000000000000000000000000000000000000815260040160405180910390fd5b565b60008060008061218c86866127f5565b92509250925061219c8282612851565b82935050505092915050565b600073ffffffffffffffffffffffffffffffffffffffff168473ffffffffffffffffffffffffffffffffffffffff160361221a5760006040517f57f447ce0000000000000000000000000000000000000000000000000000000081526004016122119190614937565b60405180910390fd5b60008061222785856129b5565b91509150612239600087848487612703565b505050505050565b6001600781905550565b61225361213b565b6001600660006101000a81548160ff0219169083151502179055507f62e78cea01bee320cd4e420270b5ea74000d11b0c9f74754ebdbfc544b05a258612297611cf1565b6040516122a49190614937565b60405180910390a1565b600073ffffffffffffffffffffffffffffffffffffffff168273ffffffffffffffffffffffffffffffffffffffff16036123205760006040517fced3e1000000000000000000000000000000000000000000000000000000000081526004016123179190614937565b60405180910390fd5b80600160008573ffffffffffffffffffffffffffffffffffffffff1673ffffffffffffffffffffffffffffffffffffffff16815260200190815260200160002060008473ffffffffffffffffffffffffffffffffffffffff1673ffffffffffffffffffffffffffffffffffffffff16815260200190815260200160002060006101000a81548160ff0219169083151502179055508173ffffffffffffffffffffffffffffffffffffffff168373ffffffffffffffffffffffffffffffffffffffff167f17307eab39ab6107e8899845ad3d59bd9653f200f220920489ca2b5937696c318360405161241191906136c6565b60405180910390a3505050565b600073ffffffffffffffffffffffffffffffffffffffff168473ffffffffffffffffffffffffffffffffffffffff16036124905760006040517f57f447ce0000000000000000000000000000000000000000000000000000000081526004016124879190614937565b60405180910390fd5b600073ffffffffffffffffffffffffffffffffffffffff168573ffffffffffffffffffffffffffffffffffffffff16036125025760006040517f01a835140000000000000000000000000000000000000000000000000000000081526004016124f99190614937565b60405180910390fd5b60008061250f85856129b5565b915091506125208787848487612703565b50505050505050565b600073ffffffffffffffffffffffffffffffffffffffff168373ffffffffffffffffffffffffffffffffffffffff160361259b5760006040517f01a835140000000000000000000000000000000000000000000000000000000081526004016125929190614937565b60405180910390fd5b6000806125a884846129b5565b915091506125c9856000848460405180602001604052806000815250612703565b5050505050565b60007fd9b67a26000000000000000000000000000000000000000000000000000000007bffffffffffffffffffffffffffffffffffffffffffffffffffffffff1916827bffffffffffffffffffffffffffffffffffffffffffffffffffffffff1916148061269b57507f0e89341c000000000000000000000000000000000000000000000000000000007bffffffffffffffffffffffffffffffffffffffffffffffffffffffff1916827bffffffffffffffffffffffffffffffffffffffffffffffffffffffff1916145b806126ab57506126aa826129e5565b5b9050919050565b6126bc82826116e1565b6126ff5780826040517fe2517d3f0000000000000000000000000000000000000000000000000000000081526004016126f6929190614952565b60405180910390fd5b5050565b61270f85858585612a4f565b600073ffffffffffffffffffffffffffffffffffffffff168473ffffffffffffffffffffffffffffffffffffffff16146127ae57600061274d611cf1565b9050600184510361279d57600061276e60008661204d90919063ffffffff16565b9050600061278660008661204d90919063ffffffff16565b9050612796838989858589612b85565b50506127ac565b6127ab818787878787612d39565b5b505b5050505050565b6127bd61103c565b6127f3576040517f8dfc202b00000000000000000000000000000000000000000000000000000000815260040160405180910390fd5b565b6000806000604184510361283a5760008060006020870151925060408701519150606087015160001a905061282c88828585612eed565b95509550955050505061284a565b60006002855160001b9250925092505b9250925092565b600060038111156128655761286461497b565b5b8260038111156128785761287761497b565b5b03156129b157600160038111156128925761289161497b565b5b8260038111156128a5576128a461497b565b5b036128dc576040517ff645eedf00000000000000000000000000000000000000000000000000000000815260040160405180910390fd5b600260038111156128f0576128ef61497b565b5b8260038111156129035761290261497b565b5b03612948578060001c6040517ffce698f700000000000000000000000000000000000000000000000000000000815260040161293f919061360b565b60405180910390fd5b60038081111561295b5761295a61497b565b5b82600381111561296e5761296d61497b565b5b036129b057806040517fd78bce0c0000000000000000000000000000000000000000000000000000000081526004016129a791906139b0565b60405180910390fd5b5b5050565b60608060405191506001825283602083015260408201905060018152826020820152604081016040529250929050565b60007f01ffc9a7000000000000000000000000000000000000000000000000000000007bffffffffffffffffffffffffffffffffffffffffffffffffffffffff1916827bffffffffffffffffffffffffffffffffffffffffffffffffffffffff1916149050919050565b600073ffffffffffffffffffffffffffffffffffffffff168473ffffffffffffffffffffffffffffffffffffffff1614158015612ab95750600073ffffffffffffffffffffffffffffffffffffffff168373ffffffffffffffffffffffffffffffffffffffff1614155b15612b735760005b8251811015612b7157600a6000848381518110612ae157612ae06146ba565b5b6020026020010151815260200190815260200160002060030160029054906101000a900460ff1615612b6457828181518110612b2057612b1f6146ba565b5b60200260200101516040517f8c3baa3e000000000000000000000000000000000000000000000000000000008152600401612b5b919061360b565b60405180910390fd5b8080600101915050612ac1565b505b612b7f84848484612fe1565b50505050565b60008473ffffffffffffffffffffffffffffffffffffffff163b1115612d31578373ffffffffffffffffffffffffffffffffffffffff1663f23a6e6187878686866040518663ffffffff1660e01b8152600401612be69594939291906149ff565b6020604051808303816000875af1925050508015612c2257506040513d601f19601f82011682018060405250810190612c1f9190614a6e565b60015b612ca6573d8060008114612c52576040519150601f19603f3d011682016040523d82523d6000602084013e612c57565b606091505b506000815103612c9e57846040517f57f447ce000000000000000000000000000000000000000000000000000000008152600401612c959190614937565b60405180910390fd5b805181602001fd5b63f23a6e6160e01b7bffffffffffffffffffffffffffffffffffffffffffffffffffffffff1916817bffffffffffffffffffffffffffffffffffffffffffffffffffffffff191614612d2f57846040517f57f447ce000000000000000000000000000000000000000000000000000000008152600401612d269190614937565b60405180910390fd5b505b505050505050565b60008473ffffffffffffffffffffffffffffffffffffffff163b1115612ee5578373ffffffffffffffffffffffffffffffffffffffff1663bc197c8187878686866040518663ffffffff1660e01b8152600401612d9a959493929190614a9b565b6020604051808303816000875af1925050508015612dd657506040513d601f19601f82011682018060405250810190612dd39190614a6e565b60015b612e5a573d8060008114612e06576040519150601f19603f3d011682016040523d82523d6000602084013e612e0b565b606091505b506000815103612e5257846040517f57f447ce000000000000000000000000000000000000000000000000000000008152600401612e499190614937565b60405180910390fd5b805181602001fd5b63bc197c8160e01b7bffffffffffffffffffffffffffffffffffffffffffffffffffffffff1916817bffffffffffffffffffffffffffffffffffffffffffffffffffffffff191614612ee357846040517f57f447ce000000000000000000000000000000000000000000000000000000008152600401612eda9190614937565b60405180910390fd5b505b505050505050565b60008060007f7fffffffffffffffffffffffffffffff5d576e7357a4501ddfe92f46681b20a08460001c1115612f2d576000600385925092509250612fd7565b600060018888888860405160008152602001604052604051612f529493929190614b1f565b6020604051602081039080840390855afa158015612f74573d6000803e3d6000fd5b505050602060405103519050600073ffffffffffffffffffffffffffffffffffffffff168173ffffffffffffffffffffffffffffffffffffffff1603612fc857600060016000801b93509350935050612fd7565b8060008060001b935093509350505b9450945094915050565b612fed8484848461316c565b600073ffffffffffffffffffffffffffffffffffffffff168473ffffffffffffffffffffffffffffffffffffffff16036130b7576000805b835181101561309b576000613043828561204d90919063ffffffff16565b9050806003600061305d858961204d90919063ffffffff16565b8152602001908152602001600020600082825461307a919061475a565b92505081905550808361308d919061475a565b925050806001019050613025565b5080600460008282546130ae919061475a565b92505081905550505b600073ffffffffffffffffffffffffffffffffffffffff168373ffffffffffffffffffffffffffffffffffffffff1603613166576000805b835181101561315357600061310d828561204d90919063ffffffff16565b90508060036000613127858961204d90919063ffffffff16565b8152602001908152602001600020600082825403925050819055508083019250508060010190506130ef565b5080600460008282540392505081905550505b50505050565b80518251146131b657815181516040517f5b0599910000000000000000000000000000000000000000000000000000000081526004016131ad929190614691565b60405180910390fd5b60006131c0611cf1565b905060005b83518110156133cf5760006131e3828661204d90919063ffffffff16565b905060006131fa838661204d90919063ffffffff16565b9050600073ffffffffffffffffffffffffffffffffffffffff168873ffffffffffffffffffffffffffffffffffffffff161461332757600080600084815260200190815260200160002060008a73ffffffffffffffffffffffffffffffffffffffff1673ffffffffffffffffffffffffffffffffffffffff168152602001908152602001600020549050818110156132cf57888183856040517f03dee4c50000000000000000000000000000000000000000000000000000000081526004016132c69493929190614b64565b60405180910390fd5b81810360008085815260200190815260200160002060008b73ffffffffffffffffffffffffffffffffffffffff1673ffffffffffffffffffffffffffffffffffffffff16815260200190815260200160002081905550505b600073ffffffffffffffffffffffffffffffffffffffff168773ffffffffffffffffffffffffffffffffffffffff16146133c2578060008084815260200190815260200160002060008973ffffffffffffffffffffffffffffffffffffffff1673ffffffffffffffffffffffffffffffffffffffff16815260200190815260200160002060008282546133ba919061475a565b925050819055505b50508060010190506131c5565b50600183510361348e5760006133ef60008561204d90919063ffffffff16565b9050600061340760008561204d90919063ffffffff16565b90508573ffffffffffffffffffffffffffffffffffffffff168773ffffffffffffffffffffffffffffffffffffffff168473ffffffffffffffffffffffffffffffffffffffff167fc3d58168c5ae7397731d063d5bbf3d657854427343f4c083240f7aacaa2d0f62858560405161347f929190614691565b60405180910390a4505061350d565b8373ffffffffffffffffffffffffffffffffffffffff168573ffffffffffffffffffffffffffffffffffffffff168273ffffffffffffffffffffffffffffffffffffffff167f4a39dc06d4c0dbc64b70af90fd698a233a518aa5d07e595d983b8c0526c8f7fb8686604051613504929190614ba9565b60405180910390a45b5050505050565b6000604051905090565b600080fd5b600080fd5b600073ffffffffffffffffffffffffffffffffffffffff82169050919050565b600061355382613528565b9050919050565b61356381613548565b811461356e57600080fd5b50565b6000813590506135808161355a565b92915050565b6000819050919050565b61359981613586565b81146135a457600080fd5b50565b6000813590506135b681613590565b92915050565b600080604083850312156135d3576135d261351e565b5b60006135e185828601613571565b92505060206135f2858286016135a7565b9150509250929050565b61360581613586565b82525050565b600060208201905061362060008301846135fc565b92915050565b60007fffffffff0000000000000000000000000000000000000000000000000000000082169050919050565b61365b81613626565b811461366657600080fd5b50565b60008135905061367881613652565b92915050565b6000602082840312156136945761369361351e565b5b60006136a284828501613669565b91505092915050565b60008115159050919050565b6136c0816136ab565b82525050565b60006020820190506136db60008301846136b7565b92915050565b600080fd5b600080fd5b6000601f19601f8301169050919050565b7f4e487b7100000000000000000000000000000000000000000000000000000000600052604160045260246000fd5b613734826136eb565b810181811067ffffffffffffffff82111715613753576137526136fc565b5b80604052505050565b6000613766613514565b9050613772828261372b565b919050565b600067ffffffffffffffff821115613792576137916136fc565b5b61379b826136eb565b9050602081019050919050565b82818337600083830152505050565b60006137ca6137c584613777565b61375c565b9050828152602081018484840111156137e6576137e56136e6565b5b6137f18482856137a8565b509392505050565b600082601f83011261380e5761380d6136e1565b5b813561381e8482602086016137b7565b91505092915050565b60006020828403121561383d5761383c61351e565b5b600082013567ffffffffffffffff81111561385b5761385a613523565b5b613867848285016137f9565b91505092915050565b600081519050919050565b600082825260208201905092915050565b60005b838110156138aa57808201518184015260208101905061388f565b60008484015250505050565b60006138c182613870565b6138cb818561387b565b93506138db81856020860161388c565b6138e4816136eb565b840191505092915050565b6000602082019050818103600083015261390981846138b6565b905092915050565b6000602082840312156139275761392661351e565b5b6000613935848285016135a7565b91505092915050565b6000819050919050565b6139518161393e565b811461395c57600080fd5b50565b60008135905061396e81613948565b92915050565b60006020828403121561398a5761398961351e565b5b60006139988482850161395f565b91505092915050565b6139aa8161393e565b82525050565b60006020820190506139c560008301846139a1565b92915050565b600067ffffffffffffffff8211156139e6576139e56136fc565b5b602082029050602081019050919050565b600080fd5b6000613a0f613a0a846139cb565b61375c565b90508083825260208201905060208402830185811115613a3257613a316139f7565b5b835b81811015613a5b5780613a4788826135a7565b845260208401935050602081019050613a34565b5050509392505050565b600082601f830112613a7a57613a796136e1565b5b8135613a8a8482602086016139fc565b91505092915050565b600067ffffffffffffffff821115613aae57613aad6136fc565b5b613ab7826136eb565b9050602081019050919050565b6000613ad7613ad284613a93565b61375c565b905082815260208101848484011115613af357613af26136e6565b5b613afe8482856137a8565b509392505050565b600082601f830112613b1b57613b1a6136e1565b5b8135613b2b848260208601613ac4565b91505092915050565b600080600080600060a08688031215613b5057613b4f61351e565b5b6000613b5e88828901613571565b9550506020613b6f88828901613571565b945050604086013567ffffffffffffffff811115613b9057613b8f613523565b5b613b9c88828901613a65565b935050606086013567ffffffffffffffff811115613bbd57613bbc613523565b5b613bc988828901613a65565b925050608086013567ffffffffffffffff811115613bea57613be9613523565b5b613bf688828901613b06565b9150509295509295909350565b60008060408385031215613c1a57613c1961351e565b5b6000613c288582860161395f565b9250506020613c3985828601613571565b9150509250929050565b613c4c816136ab565b8114613c5757600080fd5b50565b600081359050613c6981613c43565b92915050565b600080600080600080600060e0888a031215613c8e57613c8d61351e565b5b6000613c9c8a828b016135a7565b975050602088013567ffffffffffffffff811115613cbd57613cbc613523565b5b613cc98a828b016137f9565b9650506040613cda8a828b016135a7565b9550506060613ceb8a828b016135a7565b9450506080613cfc8a828b01613c5a565b93505060a0613d0d8a828b01613c5a565b92505060c0613d1e8a828b01613c5a565b91505092959891949750929550565b600067ffffffffffffffff821115613d4857613d476136fc565b5b602082029050602081019050919050565b6000613d6c613d6784613d2d565b61375c565b90508083825260208201905060208402830185811115613d8f57613d8e6139f7565b5b835b81811015613db85780613da48882613571565b845260208401935050602081019050613d91565b5050509392505050565b600082601f830112613dd757613dd66136e1565b5b8135613de7848260208601613d59565b91505092915050565b60008060408385031215613e0757613e0661351e565b5b600083013567ffffffffffffffff811115613e2557613e24613523565b5b613e3185828601613dc2565b925050602083013567ffffffffffffffff811115613e5257613e51613523565b5b613e5e85828601613a65565b9150509250929050565b600081519050919050565b600082825260208201905092915050565b6000819050602082019050919050565b613e9d81613586565b82525050565b6000613eaf8383613e94565b60208301905092915050565b6000602082019050919050565b6000613ed382613e68565b613edd8185613e73565b9350613ee883613e84565b8060005b83811015613f19578151613f008882613ea3565b9750613f0b83613ebb565b925050600181019050613eec565b5085935050505092915050565b60006020820190508181036000830152613f408184613ec8565b905092915050565b600080600060608486031215613f6157613f6061351e565b5b6000613f6f86828701613571565b935050602084013567ffffffffffffffff811115613f9057613f8f613523565b5b613f9c86828701613a65565b925050604084013567ffffffffffffffff811115613fbd57613fbc613523565b5b613fc986828701613a65565b9150509250925092565b600080fd5b60008083601f840112613fee57613fed6136e1565b5b8235905067ffffffffffffffff81111561400b5761400a613fd3565b5b602083019150836001820283011115614027576140266139f7565b5b9250929050565b60008060008060006080868803121561404a5761404961351e565b5b600061405888828901613571565b9550506020614069888289016135a7565b945050604061407a888289016135a7565b935050606086013567ffffffffffffffff81111561409b5761409a613523565b5b6140a788828901613fd8565b92509250509295509295909350565b6000602082840312156140cc576140cb61351e565b5b60006140da84828501613571565b91505092915050565b600080604083850312156140fa576140f961351e565b5b6000614108858286016135a7565b925050602061411985828601613c5a565b9150509250929050565b6000806040838503121561413a5761413961351e565b5b600061414885828601613571565b925050602061415985828601613c5a565b9150509250929050565b600060c082019050818103600083015261417d81896138b6565b905061418c60208301886135fc565b61419960408301876135fc565b6141a660608301866136b7565b6141b360808301856136b7565b6141c060a08301846136b7565b979650505050505050565b600080604083850312156141e2576141e161351e565b5b60006141f085828601613571565b925050602061420185828601613571565b9150509250929050565b600080604083850312156142225761422161351e565b5b6000614230858286016135a7565b9250506020614241858286016135a7565b9150509250929050565b600080600080600060a086880312156142675761426661351e565b5b600061427588828901613571565b955050602061428688828901613571565b9450506040614297888289016135a7565b93505060606142a8888289016135a7565b925050608086013567ffffffffffffffff8111156142c9576142c8613523565b5b6142d588828901613b06565b9150509295509295909350565b6000806000606084860312156142fb576142fa61351e565b5b600061430986828701613571565b935050602061431a868287016135a7565b925050604061432b868287016135a7565b9150509250925092565b7f4e487b7100000000000000000000000000000000000000000000000000000000600052602260045260246000fd5b6000600282049050600182168061437c57607f821691505b60208210810361438f5761438e614335565b5b50919050565b61439e81613548565b82525050565b60006040820190506143b96000830185614395565b6143c66020830184614395565b9392505050565b60008190508160005260206000209050919050565b60006020601f8301049050919050565b600082821b905092915050565b60006008830261442f7fffffffffffffffffffffffffffffffffffffffffffffffffffffffffffffffff826143f2565b61443986836143f2565b95508019841693508086168417925050509392505050565b6000819050919050565b600061447661447161446c84613586565b614451565b613586565b9050919050565b6000819050919050565b6144908361445b565b6144a461449c8261447d565b8484546143ff565b825550505050565b600090565b6144b96144ac565b6144c4818484614487565b505050565b5b818110156144e8576144dd6000826144b1565b6001810190506144ca565b5050565b601f82111561452d576144fe816143cd565b614507846143e2565b81016020851015614516578190505b61452a614522856143e2565b8301826144c9565b50505b505050565b600082821c905092915050565b600061455060001984600802614532565b1980831691505092915050565b6000614569838361453f565b9150826002028217905092915050565b61458282613870565b67ffffffffffffffff81111561459b5761459a6136fc565b5b6145a58254614364565b6145b08282856144ec565b600060209050601f8311600181146145e357600084156145d1578287015190505b6145db858261455d565b865550614643565b601f1984166145f1866143cd565b60005b82811015614619578489015182556001820191506020850194506020810190506145f4565b868310156146365784890151614632601f89168261453f565b8355505b6001600288020188555050505b505050505050565b600081905092915050565b50565b600061466660008361464b565b915061467182614656565b600082019050919050565b600061468782614659565b9150819050919050565b60006040820190506146a660008301856135fc565b6146b360208301846135fc565b9392505050565b7f4e487b7100000000000000000000000000000000000000000000000000000000600052603260045260246000fd5b7f4e487b7100000000000000000000000000000000000000000000000000000000600052601160045260246000fd5b600061472382613586565b915061472e83613586565b925082820261473c81613586565b91508282048414831517614753576147526146e9565b5b5092915050565b600061476582613586565b915061477083613586565b9250828201905080821115614788576147876146e9565b5b92915050565b60006080820190506147a360008301876135fc565b6147b060208301866135fc565b6147bd60408301856135fc565b6147ca60608301846135fc565b95945050505050565b6000610100820190506147e9600083018b614395565b6147f6602083018a614395565b61480360408301896135fc565b61481060608301886135fc565b61481d60808301876139a1565b61482a60a08301866135fc565b61483760c08301856135fc565b61484460e0830184614395565b9998505050505050505050565b600081905092915050565b7f19457468657265756d205369676e6564204d6573736167653a0a333200000000600082015250565b6000614892601c83614851565b915061489d8261485c565b601c82019050919050565b6000819050919050565b6148c36148be8261393e565b6148a8565b82525050565b60006148d482614885565b91506148e082846148b2565b60208201915081905092915050565b60006148fa82613586565b91507fffffffffffffffffffffffffffffffffffffffffffffffffffffffffffffffff820361492c5761492b6146e9565b5b600182019050919050565b600060208201905061494c6000830184614395565b92915050565b60006040820190506149676000830185614395565b61497460208301846139a1565b9392505050565b7f4e487b7100000000000000000000000000000000000000000000000000000000600052602160045260246000fd5b600081519050919050565b600082825260208201905092915050565b60006149d1826149aa565b6149db81856149b5565b93506149eb81856020860161388c565b6149f4816136eb565b840191505092915050565b600060a082019050614a146000830188614395565b614a216020830187614395565b614a2e60408301866135fc565b614a3b60608301856135fc565b8181036080830152614a4d81846149c6565b90509695505050505050565b600081519050614a6881613652565b92915050565b600060208284031215614a8457614a8361351e565b5b6000614a9284828501614a59565b91505092915050565b600060a082019050614ab06000830188614395565b614abd6020830187614395565b8181036040830152614acf8186613ec8565b90508181036060830152614ae38185613ec8565b90508181036080830152614af781846149c6565b90509695505050505050565b600060ff82169050919050565b614b1981614b03565b82525050565b6000608082019050614b3460008301876139a1565b614b416020830186614b10565b614b4e60408301856139a1565b614b5b60608301846139a1565b95945050505050565b6000608082019050614b796000830187614395565b614b8660208301866135fc565b614b9360408301856135fc565b614ba060608301846135fc565b95945050505050565b60006040820190508181036000830152614bc38185613ec8565b90508181036020830152614bd78184613ec8565b9050939250505056fea26469706673582212208f07eef81df214da29cf9af05ad8b561db747025611bbc2f83723ab91aaa573c64736f6c634300081b0033",
  "linkReferences": {},
  "deployedLinkReferences": {}
}