{
  "_format": "hh-sol-artifact-1",
  "contractName": "BlockusRelayer",
  "sourceName": "contracts/Relayer.sol",
  "abi": [
    {
      "inputs": [
        {
          "internalType": "string",
          "name": "name",
          "type": "string"
        },
        {
          "internalType": "address",
          "name": "initialOwner",
          "type": "address"
        },
        {
          "internalType": "address[]",
          "name": "_allowedContracts",
          "type": "address[]"
        }
      ],
      "stateMutability": "nonpayable",
      "type": "constructor"
    },
    {
      "inputs": [],
      "name": "BalanceInsufficient",
      "type": "error"
    },
    {
      "inputs": [
        {
          "internalType": "address",
          "name": "target",
          "type": "address"
        }
      ],
      "name": "ContractAlreadyAllowed",
      "type": "error"
    },
    {
      "inputs": [
        {
          "internalType": "address",
          "name": "target",
          "type": "address"
        }
      ],
      "name": "ContractNotAllowed",
      "type": "error"
    },
    {
      "inputs": [
        {
          "internalType": "address",
          "name": "target",
          "type": "address"
        }
      ],
      "name": "ContractNotInAllowlist",
      "type": "error"
    },
    {
      "inputs": [
        {
          "internalType": "uint48",
          "name": "deadline",
          "type": "uint48"
        }
      ],
      "name": "ERC2771ForwarderExpiredRequest",
      "type": "error"
    },
    {
      "inputs": [
        {
          "internalType": "address",
          "name": "signer",
          "type": "address"
        },
        {
          "internalType": "address",
          "name": "from",
          "type": "address"
        }
      ],
      "name": "ERC2771ForwarderInvalidSigner",
      "type": "error"
    },
    {
      "inputs": [
        {
          "internalType": "uint256",
          "name": "requestedValue",
          "type": "uint256"
        },
        {
          "internalType": "uint256",
          "name": "msgValue",
          "type": "uint256"
        }
      ],
      "name": "ERC2771ForwarderMismatchedValue",
      "type": "error"
    },
    {
      "inputs": [
        {
          "internalType": "address",
          "name": "target",
          "type": "address"
        },
        {
          "internalType": "address",
          "name": "forwarder",
          "type": "address"
        }
      ],
      "name": "ERC2771UntrustfulTarget",
      "type": "error"
    },
    {
      "inputs": [],
      "name": "EnforcedPause",
      "type": "error"
    },
    {
      "inputs": [],
      "name": "ExpectedPause",
      "type": "error"
    },
    {
      "inputs": [],
      "name": "FailedCall",
      "type": "error"
    },
    {
      "inputs": [
        {
          "internalType": "uint256",
          "name": "balance",
          "type": "uint256"
        },
        {
          "internalType": "uint256",
          "name": "needed",
          "type": "uint256"
        }
      ],
      "name": "InsufficientBalance",
      "type": "error"
    },
    {
      "inputs": [
        {
          "internalType": "address",
          "name": "account",
          "type": "address"
        },
        {
          "internalType": "uint256",
          "name": "currentNonce",
          "type": "uint256"
        }
      ],
      "name": "InvalidAccountNonce",
      "type": "error"
    },
    {
      "inputs": [],
      "name": "InvalidShortString",
      "type": "error"
    },
    {
      "inputs": [
        {
          "internalType": "address",
          "name": "owner",
          "type": "address"
        }
      ],
      "name": "OwnableInvalidOwner",
      "type": "error"
    },
    {
      "inputs": [
        {
          "internalType": "address",
          "name": "account",
          "type": "address"
        }
      ],
      "name": "OwnableUnauthorizedAccount",
      "type": "error"
    },
    {
      "inputs": [
        {
          "internalType": "string",
          "name": "str",
          "type": "string"
        }
      ],
      "name": "StringTooLong",
      "type": "error"
    },
    {
      "inputs": [],
      "name": "WithdrawalFailed",
      "type": "error"
    },
    {
      "anonymous": false,
      "inputs": [
        {
          "indexed": true,
          "internalType": "address",
          "name": "target",
          "type": "address"
        }
      ],
      "name": "ContractAllowed",
      "type": "event"
    },
    {
      "anonymous": false,
      "inputs": [
        {
          "indexed": true,
          "internalType": "address",
          "name": "target",
          "type": "address"
        }
      ],
      "name": "ContractRemoved",
      "type": "event"
    },
    {
      "anonymous": false,
      "inputs": [],
      "name": "EIP712DomainChanged",
      "type": "event"
    },
    {
      "anonymous": false,
      "inputs": [
        {
          "indexed": true,
          "internalType": "address",
          "name": "signer",
          "type": "address"
        },
        {
          "indexed": false,
          "internalType": "uint256",
          "name": "nonce",
          "type": "uint256"
        },
        {
          "indexed": false,
          "internalType": "bool",
          "name": "success",
          "type": "bool"
        }
      ],
      "name": "ExecutedForwardRequest",
      "type": "event"
    },
    {
      "anonymous": false,
      "inputs": [
        {
          "indexed": true,
          "internalType": "address",
          "name": "depositor",
          "type": "address"
        },
        {
          "indexed": false,
          "internalType": "uint256",
          "name": "amount",
          "type": "uint256"
        }
      ],
      "name": "FundsDeposited",
      "type": "event"
    },
    {
      "anonymous": false,
      "inputs": [
        {
          "indexed": true,
          "internalType": "address",
          "name": "receiver",
          "type": "address"
        },
        {
          "indexed": false,
          "internalType": "uint256",
          "name": "amount",
          "type": "uint256"
        }
      ],
      "name": "FundsWithdrawn",
      "type": "event"
    },
    {
      "anonymous": false,
      "inputs": [
        {
          "indexed": true,
          "internalType": "address",
          "name": "previousOwner",
          "type": "address"
        },
        {
          "indexed": true,
          "internalType": "address",
          "name": "newOwner",
          "type": "address"
        }
      ],
      "name": "OwnershipTransferred",
      "type": "event"
    },
    {
      "anonymous": false,
      "inputs": [
        {
          "indexed": false,
          "internalType": "address",
          "name": "account",
          "type": "address"
        }
      ],
      "name": "Paused",
      "type": "event"
    },
    {
      "anonymous": false,
      "inputs": [
        {
          "indexed": false,
          "internalType": "address",
          "name": "account",
          "type": "address"
        }
      ],
      "name": "Unpaused",
      "type": "event"
    },
    {
      "inputs": [],
      "name": "addFunds",
      "outputs": [],
      "stateMutability": "payable",
      "type": "function"
    },
    {
      "inputs": [
        {
          "internalType": "address",
          "name": "target",
          "type": "address"
        }
      ],
      "name": "allowContract",
      "outputs": [],
      "stateMutability": "nonpayable",
      "type": "function"
    },
    {
      "inputs": [
        {
          "internalType": "address[]",
          "name": "targets",
          "type": "address[]"
        }
      ],
      "name": "allowContracts",
      "outputs": [],
      "stateMutability": "nonpayable",
      "type": "function"
    },
    {
      "inputs": [
        {
          "internalType": "address",
          "name": "",
          "type": "address"
        }
      ],
      "name": "allowedContracts",
      "outputs": [
        {
          "internalType": "bool",
          "name": "",
          "type": "bool"
        }
      ],
      "stateMutability": "view",
      "type": "function"
    },
    {
      "inputs": [
        {
          "internalType": "uint256",
          "name": "",
          "type": "uint256"
        }
      ],
      "name": "allowedContractsList",
      "outputs": [
        {
          "internalType": "address",
          "name": "",
          "type": "address"
        }
      ],
      "stateMutability": "view",
      "type": "function"
    },
    {
      "inputs": [],
      "name": "eip712Domain",
      "outputs": [
        {
          "internalType": "bytes1",
          "name": "fields",
          "type": "bytes1"
        },
        {
          "internalType": "string",
          "name": "name",
          "type": "string"
        },
        {
          "internalType": "string",
          "name": "version",
          "type": "string"
        },
        {
          "internalType": "uint256",
          "name": "chainId",
          "type": "uint256"
        },
        {
          "internalType": "address",
          "name": "verifyingContract",
          "type": "address"
        },
        {
          "internalType": "bytes32",
          "name": "salt",
          "type": "bytes32"
        },
        {
          "internalType": "uint256[]",
          "name": "extensions",
          "type": "uint256[]"
        }
      ],
      "stateMutability": "view",
      "type": "function"
    },
    {
      "inputs": [
        {
          "components": [
            {
              "internalType": "address",
              "name": "from",
              "type": "address"
            },
            {
              "internalType": "address",
              "name": "to",
              "type": "address"
            },
            {
              "internalType": "uint256",
              "name": "value",
              "type": "uint256"
            },
            {
              "internalType": "uint256",
              "name": "gas",
              "type": "uint256"
            },
            {
              "internalType": "uint48",
              "name": "deadline",
              "type": "uint48"
            },
            {
              "internalType": "bytes",
              "name": "data",
              "type": "bytes"
            },
            {
              "internalType": "bytes",
              "name": "signature",
              "type": "bytes"
            }
          ],
          "internalType": "struct ERC2771Forwarder.ForwardRequestData",
          "name": "request",
          "type": "tuple"
        }
      ],
      "name": "execute",
      "outputs": [],
      "stateMutability": "payable",
      "type": "function"
    },
    {
      "inputs": [
        {
          "components": [
            {
              "internalType": "address",
              "name": "from",
              "type": "address"
            },
            {
              "internalType": "address",
              "name": "to",
              "type": "address"
            },
            {
              "internalType": "uint256",
              "name": "value",
              "type": "uint256"
            },
            {
              "internalType": "uint256",
              "name": "gas",
              "type": "uint256"
            },
            {
              "internalType": "uint48",
              "name": "deadline",
              "type": "uint48"
            },
            {
              "internalType": "bytes",
              "name": "data",
              "type": "bytes"
            },
            {
              "internalType": "bytes",
              "name": "signature",
              "type": "bytes"
            }
          ],
          "internalType": "struct ERC2771Forwarder.ForwardRequestData[]",
          "name": "requests",
          "type": "tuple[]"
        },
        {
          "internalType": "address payable",
          "name": "refundReceiver",
          "type": "address"
        }
      ],
      "name": "executeBatch",
      "outputs": [],
      "stateMutability": "payable",
      "type": "function"
    },
    {
      "inputs": [],
      "name": "getAllowedContracts",
      "outputs": [
        {
          "internalType": "address[]",
          "name": "",
          "type": "address[]"
        }
      ],
      "stateMutability": "view",
      "type": "function"
    },
    {
      "inputs": [],
      "name": "getBalance",
      "outputs": [
        {
          "internalType": "uint256",
          "name": "",
          "type": "uint256"
        }
      ],
      "stateMutability": "view",
      "type": "function"
    },
    {
      "inputs": [
        {
          "internalType": "address",
          "name": "owner",
          "type": "address"
        }
      ],
      "name": "nonces",
      "outputs": [
        {
          "internalType": "uint256",
          "name": "",
          "type": "uint256"
        }
      ],
      "stateMutability": "view",
      "type": "function"
    },
    {
      "inputs": [],
      "name": "owner",
      "outputs": [
        {
          "internalType": "address",
          "name": "",
          "type": "address"
        }
      ],
      "stateMutability": "view",
      "type": "function"
    },
    {
      "inputs": [],
      "name": "pause",
      "outputs": [],
      "stateMutability": "nonpayable",
      "type": "function"
    },
    {
      "inputs": [],
      "name": "paused",
      "outputs": [
        {
          "internalType": "bool",
          "name": "",
          "type": "bool"
        }
      ],
      "stateMutability": "view",
      "type": "function"
    },
    {
      "inputs": [
        {
          "internalType": "address",
          "name": "target",
          "type": "address"
        }
      ],
      "name": "removeContract",
      "outputs": [],
      "stateMutability": "nonpayable",
      "type": "function"
    },
    {
      "inputs": [],
      "name": "renounceOwnership",
      "outputs": [],
      "stateMutability": "nonpayable",
      "type": "function"
    },
    {
      "inputs": [
        {
          "internalType": "address",
          "name": "newOwner",
          "type": "address"
        }
      ],
      "name": "transferOwnership",
      "outputs": [],
      "stateMutability": "nonpayable",
      "type": "function"
    },
    {
      "inputs": [],
      "name": "unpause",
      "outputs": [],
      "stateMutability": "nonpayable",
      "type": "function"
    },
    {
      "inputs": [
        {
          "components": [
            {
              "internalType": "address",
              "name": "from",
              "type": "address"
            },
            {
              "internalType": "address",
              "name": "to",
              "type": "address"
            },
            {
              "internalType": "uint256",
              "name": "value",
              "type": "uint256"
            },
            {
              "internalType": "uint256",
              "name": "gas",
              "type": "uint256"
            },
            {
              "internalType": "uint48",
              "name": "deadline",
              "type": "uint48"
            },
            {
              "internalType": "bytes",
              "name": "data",
              "type": "bytes"
            },
            {
              "internalType": "bytes",
              "name": "signature",
              "type": "bytes"
            }
          ],
          "internalType": "struct ERC2771Forwarder.ForwardRequestData",
          "name": "request",
          "type": "tuple"
        }
      ],
      "name": "verify",
      "outputs": [
        {
          "internalType": "bool",
          "name": "",
          "type": "bool"
        }
      ],
      "stateMutability": "view",
      "type": "function"
    },
    {
      "inputs": [
        {
          "internalType": "uint256",
          "name": "amount",
          "type": "uint256"
        },
        {
          "internalType": "address payable",
          "name": "receiver",
          "type": "address"
        }
      ],
      "name": "withdrawFunds",
      "outputs": [],
      "stateMutability": "nonpayable",
      "type": "function"
    },
    {
      "stateMutability": "payable",
      "type": "receive"
    }
  ],
  "bytecode": "0x61016060405234801561001157600080fd5b50604051613a62380380613a628339818101604052810190610033919061080d565b8183806040518060400160405280600181526020017f31000000000000000000000000000000000000000000000000000000000000008152506100806000836101ff60201b90919060201c565b610120818152505061009c6001826101ff60201b90919060201c565b6101408181525050818051906020012060e08181525050808051906020012061010081815250504660a081815250506100d961024f60201b60201c565b608081815250503073ffffffffffffffffffffffffffffffffffffffff1660c08173ffffffffffffffffffffffffffffffffffffffff1681525050505050600073ffffffffffffffffffffffffffffffffffffffff168173ffffffffffffffffffffffffffffffffffffffff16036101895760006040517f1e4fbdf700000000000000000000000000000000000000000000000000000000815260040161018091906108a7565b60405180910390fd5b610198816102aa60201b60201c565b506000600360146101000a81548160ff02191690831515021790555060005b81518110156101f6576101e98282815181106101d6576101d56108c2565b5b602002602001015161037060201b60201c565b80806001019150506101b7565b50505050610d62565b60006020835110156102215761021a8361050060201b60201c565b9050610249565b826102318361056860201b60201c565b60000190816102409190610b12565b5060ff60001b90505b92915050565b60007f8b73c3c69bb8fe3d512ecc4cf759cc79239f7b179b0ffacaa9a75d522b39400f60e05161010051463060405160200161028f959493929190610c0c565b60405160208183030381529060405280519060200120905090565b6000600360009054906101000a900473ffffffffffffffffffffffffffffffffffffffff16905081600360006101000a81548173ffffffffffffffffffffffffffffffffffffffff021916908373ffffffffffffffffffffffffffffffffffffffff1602179055508173ffffffffffffffffffffffffffffffffffffffff168173ffffffffffffffffffffffffffffffffffffffff167f8be0079c531659141344cd1fd0a4f28419497f9722a3daafe3b4186f6b6457e060405160405180910390a35050565b600460008273ffffffffffffffffffffffffffffffffffffffff1673ffffffffffffffffffffffffffffffffffffffff16815260200190815260200160002060009054906101000a900460ff16156103ff57806040517f90b8bf350000000000000000000000000000000000000000000000000000000081526004016103f691906108a7565b60405180910390fd5b6001600460008373ffffffffffffffffffffffffffffffffffffffff1673ffffffffffffffffffffffffffffffffffffffff16815260200190815260200160002060006101000a81548160ff0219169083151502179055506005819080600181540180825580915050600190039060005260206000200160009091909190916101000a81548173ffffffffffffffffffffffffffffffffffffffff021916908373ffffffffffffffffffffffffffffffffffffffff1602179055508073ffffffffffffffffffffffffffffffffffffffff167f8cfb117a9eb44e1c25952ff53429512bbac91a7702b6940cb64cd8d0a23bb47260405160405180910390a250565b600080829050601f8151111561054d57826040517f305a27a90000000000000000000000000000000000000000000000000000000081526004016105449190610ca9565b60405180910390fd5b80518161055990610cfb565b60001c1760001b915050919050565b6000819050919050565b6000604051905090565b600080fd5b600080fd5b600080fd5b600080fd5b6000601f19601f8301169050919050565b7f4e487b7100000000000000000000000000000000000000000000000000000000600052604160045260246000fd5b6105d982610590565b810181811067ffffffffffffffff821117156105f8576105f76105a1565b5b80604052505050565b600061060b610572565b905061061782826105d0565b919050565b600067ffffffffffffffff821115610637576106366105a1565b5b61064082610590565b9050602081019050919050565b60005b8381101561066b578082015181840152602081019050610650565b60008484015250505050565b600061068a6106858461061c565b610601565b9050828152602081018484840111156106a6576106a561058b565b5b6106b184828561064d565b509392505050565b600082601f8301126106ce576106cd610586565b5b81516106de848260208601610677565b91505092915050565b600073ffffffffffffffffffffffffffffffffffffffff82169050919050565b6000610712826106e7565b9050919050565b61072281610707565b811461072d57600080fd5b50565b60008151905061073f81610719565b92915050565b600067ffffffffffffffff8211156107605761075f6105a1565b5b602082029050602081019050919050565b600080fd5b600061078961078484610745565b610601565b905080838252602082019050602084028301858111156107ac576107ab610771565b5b835b818110156107d557806107c18882610730565b8452602084019350506020810190506107ae565b5050509392505050565b600082601f8301126107f4576107f3610586565b5b8151610804848260208601610776565b91505092915050565b6000806000606084860312156108265761082561057c565b5b600084015167ffffffffffffffff81111561084457610843610581565b5b610850868287016106b9565b935050602061086186828701610730565b925050604084015167ffffffffffffffff81111561088257610881610581565b5b61088e868287016107df565b9150509250925092565b6108a181610707565b82525050565b60006020820190506108bc6000830184610898565b92915050565b7f4e487b7100000000000000000000000000000000000000000000000000000000600052603260045260246000fd5b600081519050919050565b7f4e487b7100000000000000000000000000000000000000000000000000000000600052602260045260246000fd5b6000600282049050600182168061094357607f821691505b602082108103610956576109556108fc565b5b50919050565b60008190508160005260206000209050919050565b60006020601f8301049050919050565b600082821b905092915050565b6000600883026109be7fffffffffffffffffffffffffffffffffffffffffffffffffffffffffffffffff82610981565b6109c88683610981565b95508019841693508086168417925050509392505050565b6000819050919050565b6000819050919050565b6000610a0f610a0a610a05846109e0565b6109ea565b6109e0565b9050919050565b6000819050919050565b610a29836109f4565b610a3d610a3582610a16565b84845461098e565b825550505050565b600090565b610a52610a45565b610a5d818484610a20565b505050565b5b81811015610a8157610a76600082610a4a565b600181019050610a63565b5050565b601f821115610ac657610a978161095c565b610aa084610971565b81016020851015610aaf578190505b610ac3610abb85610971565b830182610a62565b50505b505050565b600082821c905092915050565b6000610ae960001984600802610acb565b1980831691505092915050565b6000610b028383610ad8565b9150826002028217905092915050565b610b1b826108f1565b67ffffffffffffffff811115610b3457610b336105a1565b5b610b3e825461092b565b610b49828285610a85565b600060209050601f831160018114610b7c5760008415610b6a578287015190505b610b748582610af6565b865550610bdc565b601f198416610b8a8661095c565b60005b82811015610bb257848901518255600182019150602085019450602081019050610b8d565b86831015610bcf5784890151610bcb601f891682610ad8565b8355505b6001600288020188555050505b505050505050565b6000819050919050565b610bf781610be4565b82525050565b610c06816109e0565b82525050565b600060a082019050610c216000830188610bee565b610c2e6020830187610bee565b610c3b6040830186610bee565b610c486060830185610bfd565b610c556080830184610898565b9695505050505050565b600082825260208201905092915050565b6000610c7b826108f1565b610c858185610c5f565b9350610c9581856020860161064d565b610c9e81610590565b840191505092915050565b60006020820190508181036000830152610cc38184610c70565b905092915050565b600081519050919050565b6000819050602082019050919050565b6000610cf28251610be4565b80915050919050565b6000610d0682610ccb565b82610d1084610cd6565b9050610d1b81610ce6565b92506020821015610d5b57610d567fffffffffffffffffffffffffffffffffffffffffffffffffffffffffffffffff83602003600802610981565b831692505b5050919050565b60805160a05160c05160e051610100516101205161014051612ca6610dbc60003960006112e0015260006112a501526000611f5101526000611f3001526000611cd301526000611d2901526000611d520152612ca66000f3fe6080604052600436106101235760003560e01c80638456cb59116100a0578063c375c2ef11610064578063c375c2ef146103ef578063ccf96b4a14610418578063df905caf14610434578063f2fde38b14610450578063f6bd02fa1461047957610178565b80638456cb591461033557806384b0196e1461034c5780638da5cb5b1461037d578063a26759cb146103a8578063a863932c146103b257610178565b8063538741c5116100e7578063538741c5146102625780635c975abb1461028d578063715018a6146102b8578063744bfe61146102cf5780637ecebe00146102f857610178565b806312065fe01461017d57806319d8d38c146101a857806325416bc9146101e55780633f4ba83a1461020e57806351e0e26b1461022557610178565b36610178573373ffffffffffffffffffffffffffffffffffffffff167f543ba50a5eec5e6178218e364b1d0f396157b3c8fa278522c2cb7fd99407d4743460405161016e9190611fba565b60405180910390a2005b600080fd5b34801561018957600080fd5b506101926104a2565b60405161019f9190611fba565b60405180910390f35b3480156101b457600080fd5b506101cf60048036038101906101ca9190612003565b6104aa565b6040516101dc9190612067565b60405180910390f35b3480156101f157600080fd5b5061020c600480360381019061020791906120e7565b6104dd565b005b34801561021a57600080fd5b50610223610535565b005b34801561023157600080fd5b5061024c60048036038101906102479190612192565b610547565b6040516102599190612067565b60405180910390f35b34801561026e57600080fd5b50610277610567565b604051610284919061227d565b60405180910390f35b34801561029957600080fd5b506102a26105f5565b6040516102af9190612067565b60405180910390f35b3480156102c457600080fd5b506102cd61060c565b005b3480156102db57600080fd5b506102f660048036038101906102f19190612309565b610620565b005b34801561030457600080fd5b5061031f600480360381019061031a9190612192565b610757565b60405161032c9190611fba565b60405180910390f35b34801561034157600080fd5b5061034a6107a0565b005b34801561035857600080fd5b506103616107b2565b60405161037497969594939291906124fa565b60405180910390f35b34801561038957600080fd5b5061039261085c565b60405161039f919061257e565b60405180910390f35b6103b0610886565b005b3480156103be57600080fd5b506103d960048036038101906103d49190612599565b6108d6565b6040516103e6919061257e565b60405180910390f35b3480156103fb57600080fd5b5061041660048036038101906104119190612192565b610915565b005b610432600480360381019061042d919061261c565b610bd0565b005b61044e60048036038101906104499190612003565b610cfe565b005b34801561045c57600080fd5b5061047760048036038101906104729190612192565b610db4565b005b34801561048557600080fd5b506104a0600480360381019061049b9190612192565b610e3a565b005b600047905090565b6000806000806104b985610e4e565b509250925092508280156104ca5750815b80156104d35750805b9350505050919050565b6104e5610ef9565b60005b82829050811015610530576105238383838181106105095761050861267c565b5b905060200201602081019061051e9190612192565b610f80565b80806001019150506104e8565b505050565b61053d610ef9565b610545611110565b565b60046020528060005260406000206000915054906101000a900460ff1681565b606060058054806020026020016040519081016040528092919081815260200182805480156105eb57602002820191906000526020600020905b8160009054906101000a900473ffffffffffffffffffffffffffffffffffffffff1673ffffffffffffffffffffffffffffffffffffffff16815260200190600101908083116105a1575b5050505050905090565b6000600360149054906101000a900460ff16905090565b610614610ef9565b61061e6000611173565b565b610628610ef9565b47821115610661576040517eb8f21600000000000000000000000000000000000000000000000000000000815260040160405180910390fd5b8073ffffffffffffffffffffffffffffffffffffffff167feaff4b37086828766ad3268786972c0cd24259d4c87a80f9d3963a3c3d999b0d836040516106a79190611fba565b60405180910390a260008173ffffffffffffffffffffffffffffffffffffffff16836040516106d5906126dc565b60006040518083038185875af1925050503d8060008114610712576040519150601f19603f3d011682016040523d82523d6000602084013e610717565b606091505b5050905080610752576040517f27fcd9d100000000000000000000000000000000000000000000000000000000815260040160405180910390fd5b505050565b6000600260008373ffffffffffffffffffffffffffffffffffffffff1673ffffffffffffffffffffffffffffffffffffffff168152602001908152602001600020549050919050565b6107a8610ef9565b6107b0611239565b565b6000606080600080600060606107c661129c565b6107ce6112d7565b46306000801b600067ffffffffffffffff8111156107ef576107ee6126f1565b5b60405190808252806020026020018201604052801561081d5781602001602082028036833780820191505090505b507f0f00000000000000000000000000000000000000000000000000000000000000959493929190965096509650965096509650965090919293949596565b6000600360009054906101000a900473ffffffffffffffffffffffffffffffffffffffff16905090565b3373ffffffffffffffffffffffffffffffffffffffff167f543ba50a5eec5e6178218e364b1d0f396157b3c8fa278522c2cb7fd99407d474346040516108cc9190611fba565b60405180910390a2565b600581815481106108e657600080fd5b906000526020600020016000915054906101000a900473ffffffffffffffffffffffffffffffffffffffff1681565b61091d610ef9565b600460008273ffffffffffffffffffffffffffffffffffffffff1673ffffffffffffffffffffffffffffffffffffffff16815260200190815260200160002060009054906101000a900460ff166109ab57806040517f90d450950000000000000000000000000000000000000000000000000000000081526004016109a2919061257e565b60405180910390fd5b6000600460008373ffffffffffffffffffffffffffffffffffffffff1673ffffffffffffffffffffffffffffffffffffffff16815260200190815260200160002060006101000a81548160ff02191690831515021790555060005b600580549050811015610b89578173ffffffffffffffffffffffffffffffffffffffff1660058281548110610a3e57610a3d61267c565b5b9060005260206000200160009054906101000a900473ffffffffffffffffffffffffffffffffffffffff1673ffffffffffffffffffffffffffffffffffffffff1603610b7c5760056001600580549050610a98919061274f565b81548110610aa957610aa861267c565b5b9060005260206000200160009054906101000a900473ffffffffffffffffffffffffffffffffffffffff1660058281548110610ae857610ae761267c565b5b9060005260206000200160006101000a81548173ffffffffffffffffffffffffffffffffffffffff021916908373ffffffffffffffffffffffffffffffffffffffff1602179055506005805480610b4257610b41612783565b5b6001900381819060005260206000200160006101000a81549073ffffffffffffffffffffffffffffffffffffffff02191690559055610b89565b8080600101915050610a06565b508073ffffffffffffffffffffffffffffffffffffffff167f8d30d41865a0b811b9545d879520d2dde9f4cc49e4241f486ad9752bc904b56560405160405180910390a250565b610bd8611312565b60005b83839050811015610ced5760046000858584818110610bfd57610bfc61267c565b5b9050602002810190610c0f91906127c1565b6020016020810190610c219190612192565b73ffffffffffffffffffffffffffffffffffffffff1673ffffffffffffffffffffffffffffffffffffffff16815260200190815260200160002060009054906101000a900460ff16610ce057838382818110610c8057610c7f61267c565b5b9050602002810190610c9291906127c1565b6020016020810190610ca49190612192565b6040517fc592c39d000000000000000000000000000000000000000000000000000000008152600401610cd7919061257e565b60405180910390fd5b8080600101915050610bdb565b50610cf9838383611353565b505050565b610d06611312565b806020016020810190610d199190612192565b600460008273ffffffffffffffffffffffffffffffffffffffff1673ffffffffffffffffffffffffffffffffffffffff16815260200190815260200160002060009054906101000a900460ff16610da757806040517fc592c39d000000000000000000000000000000000000000000000000000000008152600401610d9e919061257e565b60405180910390fd5b610db0826114a9565b5050565b610dbc610ef9565b600073ffffffffffffffffffffffffffffffffffffffff168173ffffffffffffffffffffffffffffffffffffffff1603610e2e5760006040517f1e4fbdf7000000000000000000000000000000000000000000000000000000008152600401610e25919061257e565b60405180910390fd5b610e3781611173565b50565b610e42610ef9565b610e4b81610f80565b50565b600080600080600080610e608761153b565b91509150610e7f876020016020810190610e7a9190612192565b6116b8565b42886080016020810190610e939190612827565b65ffffffffffff161015838015610ee75750886000016020810190610eb89190612192565b73ffffffffffffffffffffffffffffffffffffffff168373ffffffffffffffffffffffffffffffffffffffff16145b83955095509550955050509193509193565b610f01611754565b73ffffffffffffffffffffffffffffffffffffffff16610f1f61085c565b73ffffffffffffffffffffffffffffffffffffffff1614610f7e57610f42611754565b6040517f118cdaa7000000000000000000000000000000000000000000000000000000008152600401610f75919061257e565b60405180910390fd5b565b600460008273ffffffffffffffffffffffffffffffffffffffff1673ffffffffffffffffffffffffffffffffffffffff16815260200190815260200160002060009054906101000a900460ff161561100f57806040517f90b8bf35000000000000000000000000000000000000000000000000000000008152600401611006919061257e565b60405180910390fd5b6001600460008373ffffffffffffffffffffffffffffffffffffffff1673ffffffffffffffffffffffffffffffffffffffff16815260200190815260200160002060006101000a81548160ff0219169083151502179055506005819080600181540180825580915050600190039060005260206000200160009091909190916101000a81548173ffffffffffffffffffffffffffffffffffffffff021916908373ffffffffffffffffffffffffffffffffffffffff1602179055508073ffffffffffffffffffffffffffffffffffffffff167f8cfb117a9eb44e1c25952ff53429512bbac91a7702b6940cb64cd8d0a23bb47260405160405180910390a250565b61111861175c565b6000600360146101000a81548160ff0219169083151502179055507f5db9ee0a495bf2e6ff9c91a7834c1ba4fdd244a5e8aa4e537bd38aeae4b073aa61115c611754565b604051611169919061257e565b60405180910390a1565b6000600360009054906101000a900473ffffffffffffffffffffffffffffffffffffffff16905081600360006101000a81548173ffffffffffffffffffffffffffffffffffffffff021916908373ffffffffffffffffffffffffffffffffffffffff1602179055508173ffffffffffffffffffffffffffffffffffffffff168173ffffffffffffffffffffffffffffffffffffffff167f8be0079c531659141344cd1fd0a4f28419497f9722a3daafe3b4186f6b6457e060405160405180910390a35050565b611241611312565b6001600360146101000a81548160ff0219169083151502179055507f62e78cea01bee320cd4e420270b5ea74000d11b0c9f74754ebdbfc544b05a258611285611754565b604051611292919061257e565b60405180910390a1565b60606112d260007f000000000000000000000000000000000000000000000000000000000000000061179c90919063ffffffff16565b905090565b606061130d60017f000000000000000000000000000000000000000000000000000000000000000061179c90919063ffffffff16565b905090565b61131a6105f5565b15611351576040517fd93c066500000000000000000000000000000000000000000000000000000000815260040160405180910390fd5b565b60008073ffffffffffffffffffffffffffffffffffffffff168273ffffffffffffffffffffffffffffffffffffffff1614905060008060005b86869050811015611447578686828181106113aa576113a961267c565b5b90506020028101906113bc91906127c1565b60400135836113cb9190612854565b925060006113fd8888848181106113e5576113e461267c565b5b90506020028101906113f791906127c1565b8661184c565b90508061143b578787838181106114175761141661267c565b5b905060200281019061142991906127c1565b60400135836114389190612854565b92505b5080600101905061138c565b5034821461148e5781346040517f70647f79000000000000000000000000000000000000000000000000000000008152600401611485929190612888565b60405180910390fd5b600081146114a1576114a08482611a81565b5b505050505050565b806040013534146114f7578060400135346040517f70647f790000000000000000000000000000000000000000000000000000000081526004016114ee929190612888565b60405180910390fd5b61150281600161184c565b611538576040517fd6bda27500000000000000000000000000000000000000000000000000000000815260040160405180910390fd5b50565b60008060008061167f858060c0019061155491906128b1565b8080601f016020809104026020016040519081016040528093929190818152602001838380828437600081840152601f19601f820116905080830192505050505050506116717f7f96328b83274ebc7c1cf4f7a3abda602b51a78b7fa1d86a2ce353d75e587cac8860000160208101906115ce9190612192565b8960200160208101906115e19190612192565b8a604001358b606001356116068d60000160208101906116019190612192565b610757565b8d60800160208101906116199190612827565b8e8060a0019061162991906128b1565b604051611637929190612948565b6040518091039020604051602001611656989796959493929190612970565b60405160208183030381529060405280519060200120611b70565b611b8a90919063ffffffff16565b509150915060006003811115611698576116976129ee565b5b8160038111156116ab576116aa6129ee565b5b1482935093505050915091565b600080306040516024016116cc919061257e565b60405160208183030381529060405263572b6c0560e01b6020820180517bffffffffffffffffffffffffffffffffffffffffffffffffffffffff83818316178352505050509050600080600060206000855160208701895afa92503d9150600051905082801561173d575060208210155b80156117495750600081115b945050505050919050565b600033905090565b6117646105f5565b61179a576040517f8dfc202b00000000000000000000000000000000000000000000000000000000815260040160405180910390fd5b565b606060ff60001b83146117b9576117b283611be6565b9050611846565b8180546117c590612a4c565b80601f01602080910402602001604051908101604052809291908181526020018280546117f190612a4c565b801561183e5780601f106118135761010080835404028352916020019161183e565b820191906000526020600020905b81548152906001019060200180831161182157829003601f168201915b505050505090505b92915050565b600080600080600061185d87610e4e565b9350935093509350851561196c57836118c1578660200160208101906118839190612192565b306040517fd2650cd10000000000000000000000000000000000000000000000000000000081526004016118b8929190612a7d565b60405180910390fd5b82611915578660800160208101906118d99190612827565b6040517f94eef58a00000000000000000000000000000000000000000000000000000000815260040161190c9190612aa6565b60405180910390fd5b8161196b578087600001602081019061192e9190612192565b6040517fc845a056000000000000000000000000000000000000000000000000000000008152600401611962929190612a7d565b60405180910390fd5b5b8380156119765750815b801561197f5750825b15611a7757600061198f82611c5a565b905060008860600135905060008960200160208101906119af9190612192565b905060008a60400135905060008b8060a001906119cc91906128b1565b8d60000160208101906119df9190612192565b6040516020016119f193929190612b09565b6040516020818303038152906040529050600080600083516020850186888af19a505a9050611a20818e611cb1565b8673ffffffffffffffffffffffffffffffffffffffff167f842fb24a83793558587a3dab2be7674da4a51d09c5542d6dd354e5d0ea70813c878d604051611a68929190612b33565b60405180910390a25050505050505b5050505092915050565b80471015611ac85747816040517fcf479181000000000000000000000000000000000000000000000000000000008152600401611abf929190612888565b60405180910390fd5b60008273ffffffffffffffffffffffffffffffffffffffff1682604051611aee906126dc565b60006040518083038185875af1925050503d8060008114611b2b576040519150601f19603f3d011682016040523d82523d6000602084013e611b30565b606091505b5050905080611b6b576040517fd6bda27500000000000000000000000000000000000000000000000000000000815260040160405180910390fd5b505050565b6000611b83611b7d611ccf565b83611d86565b9050919050565b60008060006041845103611bcf5760008060006020870151925060408701519150606087015160001a9050611bc188828585611dc7565b955095509550505050611bdf565b60006002855160001b9250925092505b9250925092565b60606000611bf383611ebb565b90506000602067ffffffffffffffff811115611c1257611c116126f1565b5b6040519080825280601f01601f191660200182016040528015611c445781602001600182028036833780820191505090505b5090508181528360208201528092505050919050565b6000600260008373ffffffffffffffffffffffffffffffffffffffff1673ffffffffffffffffffffffffffffffffffffffff1681526020019081526020016000206000815480929190600101919050559050919050565b603f8160600135611cc29190612b8b565b821015611ccb57fe5b5050565b60007f000000000000000000000000000000000000000000000000000000000000000073ffffffffffffffffffffffffffffffffffffffff163073ffffffffffffffffffffffffffffffffffffffff16148015611d4b57507f000000000000000000000000000000000000000000000000000000000000000046145b15611d78577f00000000000000000000000000000000000000000000000000000000000000009050611d83565b611d80611f0b565b90505b90565b60006040517f190100000000000000000000000000000000000000000000000000000000000081528360028201528260228201526042812091505092915050565b60008060007f7fffffffffffffffffffffffffffffff5d576e7357a4501ddfe92f46681b20a08460001c1115611e07576000600385925092509250611eb1565b600060018888888860405160008152602001604052604051611e2c9493929190612bd8565b6020604051602081039080840390855afa158015611e4e573d6000803e3d6000fd5b505050602060405103519050600073ffffffffffffffffffffffffffffffffffffffff168173ffffffffffffffffffffffffffffffffffffffff1603611ea257600060016000801b93509350935050611eb1565b8060008060001b935093509350505b9450945094915050565b60008060ff8360001c169050601f811115611f02576040517fb3512b0c00000000000000000000000000000000000000000000000000000000815260040160405180910390fd5b80915050919050565b60007f8b73c3c69bb8fe3d512ecc4cf759cc79239f7b179b0ffacaa9a75d522b39400f7f00000000000000000000000000000000000000000000000000000000000000007f00000000000000000000000000000000000000000000000000000000000000004630604051602001611f86959493929190612c1d565b60405160208183030381529060405280519060200120905090565b6000819050919050565b611fb481611fa1565b82525050565b6000602082019050611fcf6000830184611fab565b92915050565b600080fd5b600080fd5b600080fd5b600060e08284031215611ffa57611ff9611fdf565b5b81905092915050565b60006020828403121561201957612018611fd5565b5b600082013567ffffffffffffffff81111561203757612036611fda565b5b61204384828501611fe4565b91505092915050565b60008115159050919050565b6120618161204c565b82525050565b600060208201905061207c6000830184612058565b92915050565b600080fd5b600080fd5b600080fd5b60008083601f8401126120a7576120a6612082565b5b8235905067ffffffffffffffff8111156120c4576120c3612087565b5b6020830191508360208202830111156120e0576120df61208c565b5b9250929050565b600080602083850312156120fe576120fd611fd5565b5b600083013567ffffffffffffffff81111561211c5761211b611fda565b5b61212885828601612091565b92509250509250929050565b600073ffffffffffffffffffffffffffffffffffffffff82169050919050565b600061215f82612134565b9050919050565b61216f81612154565b811461217a57600080fd5b50565b60008135905061218c81612166565b92915050565b6000602082840312156121a8576121a7611fd5565b5b60006121b68482850161217d565b91505092915050565b600081519050919050565b600082825260208201905092915050565b6000819050602082019050919050565b6121f481612154565b82525050565b600061220683836121eb565b60208301905092915050565b6000602082019050919050565b600061222a826121bf565b61223481856121ca565b935061223f836121db565b8060005b8381101561227057815161225788826121fa565b975061226283612212565b925050600181019050612243565b5085935050505092915050565b60006020820190508181036000830152612297818461221f565b905092915050565b6122a881611fa1565b81146122b357600080fd5b50565b6000813590506122c58161229f565b92915050565b60006122d682612134565b9050919050565b6122e6816122cb565b81146122f157600080fd5b50565b600081359050612303816122dd565b92915050565b600080604083850312156123205761231f611fd5565b5b600061232e858286016122b6565b925050602061233f858286016122f4565b9150509250929050565b60007fff0000000000000000000000000000000000000000000000000000000000000082169050919050565b61237e81612349565b82525050565b600081519050919050565b600082825260208201905092915050565b60005b838110156123be5780820151818401526020810190506123a3565b60008484015250505050565b6000601f19601f8301169050919050565b60006123e682612384565b6123f0818561238f565b93506124008185602086016123a0565b612409816123ca565b840191505092915050565b61241d81612154565b82525050565b6000819050919050565b61243681612423565b82525050565b600081519050919050565b600082825260208201905092915050565b6000819050602082019050919050565b61247181611fa1565b82525050565b60006124838383612468565b60208301905092915050565b6000602082019050919050565b60006124a78261243c565b6124b18185612447565b93506124bc83612458565b8060005b838110156124ed5781516124d48882612477565b97506124df8361248f565b9250506001810190506124c0565b5085935050505092915050565b600060e08201905061250f600083018a612375565b818103602083015261252181896123db565b9050818103604083015261253581886123db565b90506125446060830187611fab565b6125516080830186612414565b61255e60a083018561242d565b81810360c0830152612570818461249c565b905098975050505050505050565b60006020820190506125936000830184612414565b92915050565b6000602082840312156125af576125ae611fd5565b5b60006125bd848285016122b6565b91505092915050565b60008083601f8401126125dc576125db612082565b5b8235905067ffffffffffffffff8111156125f9576125f8612087565b5b6020830191508360208202830111156126155761261461208c565b5b9250929050565b60008060006040848603121561263557612634611fd5565b5b600084013567ffffffffffffffff81111561265357612652611fda565b5b61265f868287016125c6565b93509350506020612672868287016122f4565b9150509250925092565b7f4e487b7100000000000000000000000000000000000000000000000000000000600052603260045260246000fd5b600081905092915050565b50565b60006126c66000836126ab565b91506126d1826126b6565b600082019050919050565b60006126e7826126b9565b9150819050919050565b7f4e487b7100000000000000000000000000000000000000000000000000000000600052604160045260246000fd5b7f4e487b7100000000000000000000000000000000000000000000000000000000600052601160045260246000fd5b600061275a82611fa1565b915061276583611fa1565b925082820390508181111561277d5761277c612720565b5b92915050565b7f4e487b7100000000000000000000000000000000000000000000000000000000600052603160045260246000fd5b600080fd5b600080fd5b600080fd5b60008235600160e0038336030381126127dd576127dc6127b2565b5b80830191505092915050565b600065ffffffffffff82169050919050565b612804816127e9565b811461280f57600080fd5b50565b600081359050612821816127fb565b92915050565b60006020828403121561283d5761283c611fd5565b5b600061284b84828501612812565b91505092915050565b600061285f82611fa1565b915061286a83611fa1565b925082820190508082111561288257612881612720565b5b92915050565b600060408201905061289d6000830185611fab565b6128aa6020830184611fab565b9392505050565b600080833560016020038436030381126128ce576128cd6127b2565b5b80840192508235915067ffffffffffffffff8211156128f0576128ef6127b7565b5b60208301925060018202360383131561290c5761290b6127bc565b5b509250929050565b82818337600083830152505050565b600061292f83856126ab565b935061293c838584612914565b82840190509392505050565b6000612955828486612923565b91508190509392505050565b61296a816127e9565b82525050565b600061010082019050612986600083018b61242d565b612993602083018a612414565b6129a06040830189612414565b6129ad6060830188611fab565b6129ba6080830187611fab565b6129c760a0830186611fab565b6129d460c0830185612961565b6129e160e083018461242d565b9998505050505050505050565b7f4e487b7100000000000000000000000000000000000000000000000000000000600052602160045260246000fd5b7f4e487b7100000000000000000000000000000000000000000000000000000000600052602260045260246000fd5b60006002820490506001821680612a6457607f821691505b602082108103612a7757612a76612a1d565b5b50919050565b6000604082019050612a926000830185612414565b612a9f6020830184612414565b9392505050565b6000602082019050612abb6000830184612961565b92915050565b60008160601b9050919050565b6000612ad982612ac1565b9050919050565b6000612aeb82612ace565b9050919050565b612b03612afe82612154565b612ae0565b82525050565b6000612b16828587612923565b9150612b228284612af2565b601482019150819050949350505050565b6000604082019050612b486000830185611fab565b612b556020830184612058565b9392505050565b7f4e487b7100000000000000000000000000000000000000000000000000000000600052601260045260246000fd5b6000612b9682611fa1565b9150612ba183611fa1565b925082612bb157612bb0612b5c565b5b828204905092915050565b600060ff82169050919050565b612bd281612bbc565b82525050565b6000608082019050612bed600083018761242d565b612bfa6020830186612bc9565b612c07604083018561242d565b612c14606083018461242d565b95945050505050565b600060a082019050612c32600083018861242d565b612c3f602083018761242d565b612c4c604083018661242d565b612c596060830185611fab565b612c666080830184612414565b969550505050505056fea2646970667358221220c261493b015678b7db5a13b960f19573a3efe034b129ac635421dfd37e3f44d864736f6c634300081b0033",
  "linkReferences": {},
  "deployedLinkReferences": {}
}