{
  "_format": "hh-sol-artifact-1",
  "contractName": "MockNFT",
  "sourceName": "contracts/MockNFT.sol",
  "abi": [
    {
      "inputs": [
        {
          "internalType": "address",
          "name": "trustedForwarder",
          "type": "address"
        }
      ],
      "stateMutability": "nonpayable",
      "type": "constructor"
    },
    {
      "inputs": [
        {
          "internalType": "address",
          "name": "sender",
          "type": "address"
        },
        {
          "internalType": "uint256",
          "name": "tokenId",
          "type": "uint256"
        },
        {
          "internalType": "address",
          "name": "owner",
          "type": "address"
        }
      ],
      "name": "ERC721IncorrectOwner",
      "type": "error"
    },
    {
      "inputs": [
        {
          "internalType": "address",
          "name": "operator",
          "type": "address"
        },
        {
          "internalType": "uint256",
          "name": "tokenId",
          "type": "uint256"
        }
      ],
      "name": "ERC721InsufficientApproval",
      "type": "error"
    },
    {
      "inputs": [
        {
          "internalType": "address",
          "name": "approver",
          "type": "address"
        }
      ],
      "name": "ERC721InvalidApprover",
      "type": "error"
    },
    {
      "inputs": [
        {
          "internalType": "address",
          "name": "operator",
          "type": "address"
        }
      ],
      "name": "ERC721InvalidOperator",
      "type": "error"
    },
    {
      "inputs": [
        {
          "internalType": "address",
          "name": "owner",
          "type": "address"
        }
      ],
      "name": "ERC721InvalidOwner",
      "type": "error"
    },
    {
      "inputs": [
        {
          "internalType": "address",
          "name": "receiver",
          "type": "address"
        }
      ],
      "name": "ERC721InvalidReceiver",
      "type": "error"
    },
    {
      "inputs": [
        {
          "internalType": "address",
          "name": "sender",
          "type": "address"
        }
      ],
      "name": "ERC721InvalidSender",
      "type": "error"
    },
    {
      "inputs": [
        {
          "internalType": "uint256",
          "name": "tokenId",
          "type": "uint256"
        }
      ],
      "name": "ERC721NonexistentToken",
      "type": "error"
    },
    {
      "anonymous": false,
      "inputs": [
        {
          "indexed": true,
          "internalType": "address",
          "name": "owner",
          "type": "address"
        },
        {
          "indexed": true,
          "internalType": "address",
          "name": "approved",
          "type": "address"
        },
        {
          "indexed": true,
          "internalType": "uint256",
          "name": "tokenId",
          "type": "uint256"
        }
      ],
      "name": "Approval",
      "type": "event"
    },
    {
      "anonymous": false,
      "inputs": [
        {
          "indexed": true,
          "internalType": "address",
          "name": "owner",
          "type": "address"
        },
        {
          "indexed": true,
          "internalType": "address",
          "name": "operator",
          "type": "address"
        },
        {
          "indexed": false,
          "internalType": "bool",
          "name": "approved",
          "type": "bool"
        }
      ],
      "name": "ApprovalForAll",
      "type": "event"
    },
    {
      "anonymous": false,
      "inputs": [
        {
          "indexed": true,
          "internalType": "address",
          "name": "from",
          "type": "address"
        },
        {
          "indexed": true,
          "internalType": "address",
          "name": "to",
          "type": "address"
        },
        {
          "indexed": true,
          "internalType": "uint256",
          "name": "tokenId",
          "type": "uint256"
        }
      ],
      "name": "Transfer",
      "type": "event"
    },
    {
      "inputs": [
        {
          "internalType": "address",
          "name": "to",
          "type": "address"
        },
        {
          "internalType": "uint256",
          "name": "tokenId",
          "type": "uint256"
        }
      ],
      "name": "approve",
      "outputs": [],
      "stateMutability": "nonpayable",
      "type": "function"
    },
    {
      "inputs": [
        {
          "internalType": "address",
          "name": "owner",
          "type": "address"
        }
      ],
      "name": "balanceOf",
      "outputs": [
        {
          "internalType": "uint256",
          "name": "",
          "type": "uint256"
        }
      ],
      "stateMutability": "view",
      "type": "function"
    },
    {
      "inputs": [
        {
          "internalType": "uint256",
          "name": "tokenId",
          "type": "uint256"
        }
      ],
      "name": "getApproved",
      "outputs": [
        {
          "internalType": "address",
          "name": "",
          "type": "address"
        }
      ],
      "stateMutability": "view",
      "type": "function"
    },
    {
      "inputs": [
        {
          "internalType": "address",
          "name": "owner",
          "type": "address"
        },
        {
          "internalType": "address",
          "name": "operator",
          "type": "address"
        }
      ],
      "name": "isApprovedForAll",
      "outputs": [
        {
          "internalType": "bool",
          "name": "",
          "type": "bool"
        }
      ],
      "stateMutability": "view",
      "type": "function"
    },
    {
      "inputs": [
        {
          "internalType": "address",
          "name": "forwarder",
          "type": "address"
        }
      ],
      "name": "isTrustedForwarder",
      "outputs": [
        {
          "internalType": "bool",
          "name": "",
          "type": "bool"
        }
      ],
      "stateMutability": "view",
      "type": "function"
    },
    {
      "inputs": [],
      "name": "mint",
      "outputs": [],
      "stateMutability": "nonpayable",
      "type": "function"
    },
    {
      "inputs": [],
      "name": "name",
      "outputs": [
        {
          "internalType": "string",
          "name": "",
          "type": "string"
        }
      ],
      "stateMutability": "view",
      "type": "function"
    },
    {
      "inputs": [
        {
          "internalType": "uint256",
          "name": "tokenId",
          "type": "uint256"
        }
      ],
      "name": "ownerOf",
      "outputs": [
        {
          "internalType": "address",
          "name": "",
          "type": "address"
        }
      ],
      "stateMutability": "view",
      "type": "function"
    },
    {
      "inputs": [
        {
          "internalType": "address",
          "name": "from",
          "type": "address"
        },
        {
          "internalType": "address",
          "name": "to",
          "type": "address"
        },
        {
          "internalType": "uint256",
          "name": "tokenId",
          "type": "uint256"
        }
      ],
      "name": "safeTransferFrom",
      "outputs": [],
      "stateMutability": "nonpayable",
      "type": "function"
    },
    {
      "inputs": [
        {
          "internalType": "address",
          "name": "from",
          "type": "address"
        },
        {
          "internalType": "address",
          "name": "to",
          "type": "address"
        },
        {
          "internalType": "uint256",
          "name": "tokenId",
          "type": "uint256"
        },
        {
          "internalType": "bytes",
          "name": "data",
          "type": "bytes"
        }
      ],
      "name": "safeTransferFrom",
      "outputs": [],
      "stateMutability": "nonpayable",
      "type": "function"
    },
    {
      "inputs": [
        {
          "internalType": "address",
          "name": "operator",
          "type": "address"
        },
        {
          "internalType": "bool",
          "name": "approved",
          "type": "bool"
        }
      ],
      "name": "setApprovalForAll",
      "outputs": [],
      "stateMutability": "nonpayable",
      "type": "function"
    },
    {
      "inputs": [
        {
          "internalType": "bytes4",
          "name": "interfaceId",
          "type": "bytes4"
        }
      ],
      "name": "supportsInterface",
      "outputs": [
        {
          "internalType": "bool",
          "name": "",
          "type": "bool"
        }
      ],
      "stateMutability": "view",
      "type": "function"
    },
    {
      "inputs": [],
      "name": "symbol",
      "outputs": [
        {
          "internalType": "string",
          "name": "",
          "type": "string"
        }
      ],
      "stateMutability": "view",
      "type": "function"
    },
    {
      "inputs": [
        {
          "internalType": "uint256",
          "name": "tokenId",
          "type": "uint256"
        }
      ],
      "name": "tokenURI",
      "outputs": [
        {
          "internalType": "string",
          "name": "",
          "type": "string"
        }
      ],
      "stateMutability": "view",
      "type": "function"
    },
    {
      "inputs": [
        {
          "internalType": "address",
          "name": "from",
          "type": "address"
        },
        {
          "internalType": "address",
          "name": "to",
          "type": "address"
        },
        {
          "internalType": "uint256",
          "name": "tokenId",
          "type": "uint256"
        }
      ],
      "name": "transferFrom",
      "outputs": [],
      "stateMutability": "nonpayable",
      "type": "function"
    },
    {
      "inputs": [],
      "name": "trustedForwarder",
      "outputs": [
        {
          "internalType": "address",
          "name": "",
          "type": "address"
        }
      ],
      "stateMutability": "view",
      "type": "function"
    }
  ],
  "bytecode": "0x60a060405234801561001057600080fd5b5060405161258e38038061258e8339818101604052810190610032919061015f565b806040518060400160405280600781526020017f4d6f636b4e4654000000000000000000000000000000000000000000000000008152506040518060400160405280600481526020017f4d4e46540000000000000000000000000000000000000000000000000000000081525081600090816100ae91906103dc565b5080600190816100be91906103dc565b5050508073ffffffffffffffffffffffffffffffffffffffff1660808173ffffffffffffffffffffffffffffffffffffffff168152505050506104ae565b600080fd5b600073ffffffffffffffffffffffffffffffffffffffff82169050919050565b600061012c82610101565b9050919050565b61013c81610121565b811461014757600080fd5b50565b60008151905061015981610133565b92915050565b600060208284031215610175576101746100fc565b5b60006101838482850161014a565b91505092915050565b600081519050919050565b7f4e487b7100000000000000000000000000000000000000000000000000000000600052604160045260246000fd5b7f4e487b7100000000000000000000000000000000000000000000000000000000600052602260045260246000fd5b6000600282049050600182168061020d57607f821691505b6020821081036102205761021f6101c6565b5b50919050565b60008190508160005260206000209050919050565b60006020601f8301049050919050565b600082821b905092915050565b6000600883026102887fffffffffffffffffffffffffffffffffffffffffffffffffffffffffffffffff8261024b565b610292868361024b565b95508019841693508086168417925050509392505050565b6000819050919050565b6000819050919050565b60006102d96102d46102cf846102aa565b6102b4565b6102aa565b9050919050565b6000819050919050565b6102f3836102be565b6103076102ff826102e0565b848454610258565b825550505050565b600090565b61031c61030f565b6103278184846102ea565b505050565b5b8181101561034b57610340600082610314565b60018101905061032d565b5050565b601f8211156103905761036181610226565b61036a8461023b565b81016020851015610379578190505b61038d6103858561023b565b83018261032c565b50505b505050565b600082821c905092915050565b60006103b360001984600802610395565b1980831691505092915050565b60006103cc83836103a2565b9150826002028217905092915050565b6103e58261018c565b67ffffffffffffffff8111156103fe576103fd610197565b5b61040882546101f5565b61041382828561034f565b600060209050601f8311600181146104465760008415610434578287015190505b61043e85826103c0565b8655506104a6565b601f19841661045486610226565b60005b8281101561047c57848901518255600182019150602085019450602081019050610457565b868310156104995784890151610495601f8916826103a2565b8355505b6001600288020188555050505b505050505050565b6080516120c56104c9600039600061074b01526120c56000f3fe608060405234801561001057600080fd5b50600436106101005760003560e01c80636352211e11610097578063a22cb46511610066578063a22cb465146102ad578063b88d4fde146102c9578063c87b56dd146102e5578063e985e9c51461031557610100565b80636352211e1461021157806370a08231146102415780637da0a8771461027157806395d89b411461028f57610100565b80631249c58b116100d35780631249c58b1461019f57806323b872dd146101a957806342842e0e146101c5578063572b6c05146101e157610100565b806301ffc9a71461010557806306fdde0314610135578063081812fc14610153578063095ea7b314610183575b600080fd5b61011f600480360381019061011a919061177c565b610345565b60405161012c91906117c4565b60405180910390f35b61013d610427565b60405161014a919061186f565b60405180910390f35b61016d600480360381019061016891906118c7565b6104b9565b60405161017a9190611935565b60405180910390f35b61019d6004803603810190610198919061197c565b6104d5565b005b6101a76104eb565b005b6101c360048036038101906101be91906119bc565b61051a565b005b6101df60048036038101906101da91906119bc565b61061c565b005b6101fb60048036038101906101f69190611a0f565b61063c565b60405161020891906117c4565b60405180910390f35b61022b600480360381019061022691906118c7565b61067b565b6040516102389190611935565b60405180910390f35b61025b60048036038101906102569190611a0f565b61068d565b6040516102689190611a4b565b60405180910390f35b610279610747565b6040516102869190611935565b60405180910390f35b61029761076f565b6040516102a4919061186f565b60405180910390f35b6102c760048036038101906102c29190611a92565b610801565b005b6102e360048036038101906102de9190611c07565b610817565b005b6102ff60048036038101906102fa91906118c7565b61083c565b60405161030c919061186f565b60405180910390f35b61032f600480360381019061032a9190611c8a565b6108a5565b60405161033c91906117c4565b60405180910390f35b60007f80ac58cd000000000000000000000000000000000000000000000000000000007bffffffffffffffffffffffffffffffffffffffffffffffffffffffff1916827bffffffffffffffffffffffffffffffffffffffffffffffffffffffff1916148061041057507f5b5e139f000000000000000000000000000000000000000000000000000000007bffffffffffffffffffffffffffffffffffffffffffffffffffffffff1916827bffffffffffffffffffffffffffffffffffffffffffffffffffffffff1916145b80610420575061041f82610939565b5b9050919050565b60606000805461043690611cf9565b80601f016020809104026020016040519081016040528092919081815260200182805461046290611cf9565b80156104af5780601f10610484576101008083540402835291602001916104af565b820191906000526020600020905b81548152906001019060200180831161049257829003601f168201915b5050505050905090565b60006104c4826109a3565b506104ce82610a2b565b9050919050565b6104e782826104e2610a68565b610a77565b5050565b60006006600081548092919061050090611d59565b919050559050610517610511610a68565b82610a89565b50565b600073ffffffffffffffffffffffffffffffffffffffff168273ffffffffffffffffffffffffffffffffffffffff160361058c5760006040517f64a0ae920000000000000000000000000000000000000000000000000000000081526004016105839190611935565b60405180910390fd5b60006105a0838361059b610a68565b610b82565b90508373ffffffffffffffffffffffffffffffffffffffff168173ffffffffffffffffffffffffffffffffffffffff1614610616578382826040517f64283d7b00000000000000000000000000000000000000000000000000000000815260040161060d93929190611da1565b60405180910390fd5b50505050565b61063783838360405180602001604052806000815250610817565b505050565b6000610646610747565b73ffffffffffffffffffffffffffffffffffffffff168273ffffffffffffffffffffffffffffffffffffffff16149050919050565b6000610686826109a3565b9050919050565b60008073ffffffffffffffffffffffffffffffffffffffff168273ffffffffffffffffffffffffffffffffffffffff16036107005760006040517f89c62b640000000000000000000000000000000000000000000000000000000081526004016106f79190611935565b60405180910390fd5b600360008373ffffffffffffffffffffffffffffffffffffffff1673ffffffffffffffffffffffffffffffffffffffff168152602001908152602001600020549050919050565b60007f0000000000000000000000000000000000000000000000000000000000000000905090565b60606001805461077e90611cf9565b80601f01602080910402602001604051908101604052809291908181526020018280546107aa90611cf9565b80156107f75780601f106107cc576101008083540402835291602001916107f7565b820191906000526020600020905b8154815290600101906020018083116107da57829003601f168201915b5050505050905090565b61081361080c610a68565b8383610d9c565b5050565b61082284848461051a565b61083661082d610a68565b85858585610f0b565b50505050565b6060610847826109a3565b5060006108526110bc565b90506000815111610872576040518060200160405280600081525061089d565b8061087c846110d3565b60405160200161088d929190611e14565b6040516020818303038152906040525b915050919050565b6000600560008473ffffffffffffffffffffffffffffffffffffffff1673ffffffffffffffffffffffffffffffffffffffff16815260200190815260200160002060008373ffffffffffffffffffffffffffffffffffffffff1673ffffffffffffffffffffffffffffffffffffffff16815260200190815260200160002060009054906101000a900460ff16905092915050565b60007f01ffc9a7000000000000000000000000000000000000000000000000000000007bffffffffffffffffffffffffffffffffffffffffffffffffffffffff1916827bffffffffffffffffffffffffffffffffffffffffffffffffffffffff1916149050919050565b6000806109af836111a1565b9050600073ffffffffffffffffffffffffffffffffffffffff168173ffffffffffffffffffffffffffffffffffffffff1603610a2257826040517f7e273289000000000000000000000000000000000000000000000000000000008152600401610a199190611a4b565b60405180910390fd5b80915050919050565b60006004600083815260200190815260200160002060009054906101000a900473ffffffffffffffffffffffffffffffffffffffff169050919050565b6000610a726111de565b905090565b610a848383836001611253565b505050565b600073ffffffffffffffffffffffffffffffffffffffff168273ffffffffffffffffffffffffffffffffffffffff1603610afb5760006040517f64a0ae92000000000000000000000000000000000000000000000000000000008152600401610af29190611935565b60405180910390fd5b6000610b0983836000610b82565b9050600073ffffffffffffffffffffffffffffffffffffffff168173ffffffffffffffffffffffffffffffffffffffff1614610b7d5760006040517f73c6ac6e000000000000000000000000000000000000000000000000000000008152600401610b749190611935565b60405180910390fd5b505050565b600080610b8e846111a1565b9050600073ffffffffffffffffffffffffffffffffffffffff168373ffffffffffffffffffffffffffffffffffffffff1614610bd057610bcf818486611418565b5b600073ffffffffffffffffffffffffffffffffffffffff168173ffffffffffffffffffffffffffffffffffffffff1614610c6157610c12600085600080611253565b6001600360008373ffffffffffffffffffffffffffffffffffffffff1673ffffffffffffffffffffffffffffffffffffffff168152602001908152602001600020600082825403925050819055505b600073ffffffffffffffffffffffffffffffffffffffff168573ffffffffffffffffffffffffffffffffffffffff1614610ce4576001600360008773ffffffffffffffffffffffffffffffffffffffff1673ffffffffffffffffffffffffffffffffffffffff168152602001908152602001600020600082825401925050819055505b846002600086815260200190815260200160002060006101000a81548173ffffffffffffffffffffffffffffffffffffffff021916908373ffffffffffffffffffffffffffffffffffffffff160217905550838573ffffffffffffffffffffffffffffffffffffffff168273ffffffffffffffffffffffffffffffffffffffff167fddf252ad1be2c89b69c2b068fc378daa952ba7f163c4a11628f55a4df523b3ef60405160405180910390a4809150509392505050565b600073ffffffffffffffffffffffffffffffffffffffff168273ffffffffffffffffffffffffffffffffffffffff1603610e0d57816040517f5b08ba18000000000000000000000000000000000000000000000000000000008152600401610e049190611935565b60405180910390fd5b80600560008573ffffffffffffffffffffffffffffffffffffffff1673ffffffffffffffffffffffffffffffffffffffff16815260200190815260200160002060008473ffffffffffffffffffffffffffffffffffffffff1673ffffffffffffffffffffffffffffffffffffffff16815260200190815260200160002060006101000a81548160ff0219169083151502179055508173ffffffffffffffffffffffffffffffffffffffff168373ffffffffffffffffffffffffffffffffffffffff167f17307eab39ab6107e8899845ad3d59bd9653f200f220920489ca2b5937696c3183604051610efe91906117c4565b60405180910390a3505050565b60008373ffffffffffffffffffffffffffffffffffffffff163b11156110b5578273ffffffffffffffffffffffffffffffffffffffff1663150b7a02868685856040518563ffffffff1660e01b8152600401610f6a9493929190611e8d565b6020604051808303816000875af1925050508015610fa657506040513d601f19601f82011682018060405250810190610fa39190611eee565b60015b61102a573d8060008114610fd6576040519150601f19603f3d011682016040523d82523d6000602084013e610fdb565b606091505b50600081510361102257836040517f64a0ae920000000000000000000000000000000000000000000000000000000081526004016110199190611935565b60405180910390fd5b805181602001fd5b63150b7a0260e01b7bffffffffffffffffffffffffffffffffffffffffffffffffffffffff1916817bffffffffffffffffffffffffffffffffffffffffffffffffffffffff1916146110b357836040517f64a0ae920000000000000000000000000000000000000000000000000000000081526004016110aa9190611935565b60405180910390fd5b505b5050505050565b606060405180602001604052806000815250905090565b6060600060016110e2846114dc565b01905060008167ffffffffffffffff81111561110157611100611adc565b5b6040519080825280601f01601f1916602001820160405280156111335781602001600182028036833780820191505090505b509050600082602001820190505b600115611196578080600190039150507f3031323334353637383961626364656600000000000000000000000000000000600a86061a8153600a858161118a57611189611f1b565b5b04945060008503611141575b819350505050919050565b60006002600083815260200190815260200160002060009054906101000a900473ffffffffffffffffffffffffffffffffffffffff169050919050565b6000806000369050905060006111f261162f565b90506111fd3361063c565b80156112095750808210155b1561124357600036828461121d9190611f4a565b90809261122c93929190611f88565b906112379190612007565b60601c92505050611250565b61124b61163e565b925050505b90565b808061128c5750600073ffffffffffffffffffffffffffffffffffffffff168273ffffffffffffffffffffffffffffffffffffffff1614155b156113c057600061129c846109a3565b9050600073ffffffffffffffffffffffffffffffffffffffff168373ffffffffffffffffffffffffffffffffffffffff161415801561130757508273ffffffffffffffffffffffffffffffffffffffff168173ffffffffffffffffffffffffffffffffffffffff1614155b801561131a575061131881846108a5565b155b1561135c57826040517fa9fbf51f0000000000000000000000000000000000000000000000000000000081526004016113539190611935565b60405180910390fd5b81156113be57838573ffffffffffffffffffffffffffffffffffffffff168273ffffffffffffffffffffffffffffffffffffffff167f8c5be1e5ebec7d5bd14f71427d1e84f3dd0314c0f7b2291e5b200ac8c7c3b92560405160405180910390a45b505b836004600085815260200190815260200160002060006101000a81548173ffffffffffffffffffffffffffffffffffffffff021916908373ffffffffffffffffffffffffffffffffffffffff16021790555050505050565b611423838383611646565b6114d757600073ffffffffffffffffffffffffffffffffffffffff168373ffffffffffffffffffffffffffffffffffffffff160361149857806040517f7e27328900000000000000000000000000000000000000000000000000000000815260040161148f9190611a4b565b60405180910390fd5b81816040517f177e802f0000000000000000000000000000000000000000000000000000000081526004016114ce929190612066565b60405180910390fd5b505050565b600080600090507a184f03e93ff9f4daa797ed6e38ed64bf6a1f010000000000000000831061153a577a184f03e93ff9f4daa797ed6e38ed64bf6a1f01000000000000000083816115305761152f611f1b565b5b0492506040810190505b6d04ee2d6d415b85acef81000000008310611577576d04ee2d6d415b85acef8100000000838161156d5761156c611f1b565b5b0492506020810190505b662386f26fc1000083106115a657662386f26fc10000838161159c5761159b611f1b565b5b0492506010810190505b6305f5e10083106115cf576305f5e10083816115c5576115c4611f1b565b5b0492506008810190505b61271083106115f45761271083816115ea576115e9611f1b565b5b0492506004810190505b60648310611617576064838161160d5761160c611f1b565b5b0492506002810190505b600a8310611626576001810190505b80915050919050565b6000611639611707565b905090565b600033905090565b60008073ffffffffffffffffffffffffffffffffffffffff168373ffffffffffffffffffffffffffffffffffffffff16141580156116fe57508273ffffffffffffffffffffffffffffffffffffffff168473ffffffffffffffffffffffffffffffffffffffff1614806116bf57506116be84846108a5565b5b806116fd57508273ffffffffffffffffffffffffffffffffffffffff166116e583610a2b565b73ffffffffffffffffffffffffffffffffffffffff16145b5b90509392505050565b60006014905090565b6000604051905090565b600080fd5b600080fd5b60007fffffffff0000000000000000000000000000000000000000000000000000000082169050919050565b61175981611724565b811461176457600080fd5b50565b60008135905061177681611750565b92915050565b6000602082840312156117925761179161171a565b5b60006117a084828501611767565b91505092915050565b60008115159050919050565b6117be816117a9565b82525050565b60006020820190506117d960008301846117b5565b92915050565b600081519050919050565b600082825260208201905092915050565b60005b838110156118195780820151818401526020810190506117fe565b60008484015250505050565b6000601f19601f8301169050919050565b6000611841826117df565b61184b81856117ea565b935061185b8185602086016117fb565b61186481611825565b840191505092915050565b600060208201905081810360008301526118898184611836565b905092915050565b6000819050919050565b6118a481611891565b81146118af57600080fd5b50565b6000813590506118c18161189b565b92915050565b6000602082840312156118dd576118dc61171a565b5b60006118eb848285016118b2565b91505092915050565b600073ffffffffffffffffffffffffffffffffffffffff82169050919050565b600061191f826118f4565b9050919050565b61192f81611914565b82525050565b600060208201905061194a6000830184611926565b92915050565b61195981611914565b811461196457600080fd5b50565b60008135905061197681611950565b92915050565b600080604083850312156119935761199261171a565b5b60006119a185828601611967565b92505060206119b2858286016118b2565b9150509250929050565b6000806000606084860312156119d5576119d461171a565b5b60006119e386828701611967565b93505060206119f486828701611967565b9250506040611a05868287016118b2565b9150509250925092565b600060208284031215611a2557611a2461171a565b5b6000611a3384828501611967565b91505092915050565b611a4581611891565b82525050565b6000602082019050611a606000830184611a3c565b92915050565b611a6f816117a9565b8114611a7a57600080fd5b50565b600081359050611a8c81611a66565b92915050565b60008060408385031215611aa957611aa861171a565b5b6000611ab785828601611967565b9250506020611ac885828601611a7d565b9150509250929050565b600080fd5b600080fd5b7f4e487b7100000000000000000000000000000000000000000000000000000000600052604160045260246000fd5b611b1482611825565b810181811067ffffffffffffffff82111715611b3357611b32611adc565b5b80604052505050565b6000611b46611710565b9050611b528282611b0b565b919050565b600067ffffffffffffffff821115611b7257611b71611adc565b5b611b7b82611825565b9050602081019050919050565b82818337600083830152505050565b6000611baa611ba584611b57565b611b3c565b905082815260208101848484011115611bc657611bc5611ad7565b5b611bd1848285611b88565b509392505050565b600082601f830112611bee57611bed611ad2565b5b8135611bfe848260208601611b97565b91505092915050565b60008060008060808587031215611c2157611c2061171a565b5b6000611c2f87828801611967565b9450506020611c4087828801611967565b9350506040611c51878288016118b2565b925050606085013567ffffffffffffffff811115611c7257611c7161171f565b5b611c7e87828801611bd9565b91505092959194509250565b60008060408385031215611ca157611ca061171a565b5b6000611caf85828601611967565b9250506020611cc085828601611967565b9150509250929050565b7f4e487b7100000000000000000000000000000000000000000000000000000000600052602260045260246000fd5b60006002820490506001821680611d1157607f821691505b602082108103611d2457611d23611cca565b5b50919050565b7f4e487b7100000000000000000000000000000000000000000000000000000000600052601160045260246000fd5b6000611d6482611891565b91507fffffffffffffffffffffffffffffffffffffffffffffffffffffffffffffffff8203611d9657611d95611d2a565b5b600182019050919050565b6000606082019050611db66000830186611926565b611dc36020830185611a3c565b611dd06040830184611926565b949350505050565b600081905092915050565b6000611dee826117df565b611df88185611dd8565b9350611e088185602086016117fb565b80840191505092915050565b6000611e208285611de3565b9150611e2c8284611de3565b91508190509392505050565b600081519050919050565b600082825260208201905092915050565b6000611e5f82611e38565b611e698185611e43565b9350611e798185602086016117fb565b611e8281611825565b840191505092915050565b6000608082019050611ea26000830187611926565b611eaf6020830186611926565b611ebc6040830185611a3c565b8181036060830152611ece8184611e54565b905095945050505050565b600081519050611ee881611750565b92915050565b600060208284031215611f0457611f0361171a565b5b6000611f1284828501611ed9565b91505092915050565b7f4e487b7100000000000000000000000000000000000000000000000000000000600052601260045260246000fd5b6000611f5582611891565b9150611f6083611891565b9250828203905081811115611f7857611f77611d2a565b5b92915050565b600080fd5b600080fd5b60008085851115611f9c57611f9b611f7e565b5b83861115611fad57611fac611f83565b5b6001850283019150848603905094509492505050565b600082905092915050565b60007fffffffffffffffffffffffffffffffffffffffff00000000000000000000000082169050919050565b600082821b905092915050565b60006120138383611fc3565b8261201e8135611fce565b9250601482101561205e576120597fffffffffffffffffffffffffffffffffffffffff00000000000000000000000083601403600802611ffa565b831692505b505092915050565b600060408201905061207b6000830185611926565b6120886020830184611a3c565b939250505056fea2646970667358221220591ae7deedb260e5eaf479eabaa3247f717b90b8a82ce0febb9efd0ab763064664736f6c634300081b0033",
  "linkReferences": {},
  "deployedLinkReferences": {}
}